{
  "abi": [
    {
      "anonymous": false,
      "inputs": [
        {
          "indexed": false,
          "internalType": "address",
          "name": "previousAdmin",
          "type": "address"
        },
        {
          "indexed": false,
          "internalType": "address",
          "name": "newAdmin",
          "type": "address"
        }
      ],
      "name": "AdminChanged",
      "type": "event"
    },
    {
      "anonymous": false,
      "inputs": [
        {
          "indexed": true,
          "internalType": "address",
          "name": "beacon",
          "type": "address"
        }
      ],
      "name": "BeaconUpgraded",
      "type": "event"
    },
    {
      "anonymous": false,
      "inputs": [
        {
          "indexed": true,
          "internalType": "address",
          "name": "proxy",
          "type": "address"
        },
        {
          "indexed": true,
          "internalType": "address",
          "name": "implementation",
          "type": "address"
        }
      ],
      "name": "ImplementationChanged",
      "type": "event"
    },
    {
      "anonymous": false,
      "inputs": [
        {
          "indexed": true,
          "internalType": "address",
          "name": "previousOwner",
          "type": "address"
        },
        {
          "indexed": true,
          "internalType": "address",
          "name": "newOwner",
          "type": "address"
        }
      ],
      "name": "OwnershipTransferred",
      "type": "event"
    },
    {
      "anonymous": false,
      "inputs": [
        {
          "indexed": true,
          "internalType": "address",
          "name": "implementation",
          "type": "address"
        }
      ],
      "name": "Upgraded",
      "type": "event"
    },
    {
      "stateMutability": "payable",
      "type": "fallback"
    },
    {
      "inputs": [],
      "name": "getImplementation",
      "outputs": [
        {
          "internalType": "address",
          "name": "",
          "type": "address"
        }
      ],
      "stateMutability": "view",
      "type": "function"
    },
    {
      "inputs": [],
      "name": "owner",
      "outputs": [
        {
          "internalType": "address",
          "name": "",
          "type": "address"
        }
      ],
      "stateMutability": "view",
      "type": "function"
    },
    {
      "inputs": [],
      "name": "proxiableUUID",
      "outputs": [
        {
          "internalType": "bytes32",
          "name": "",
          "type": "bytes32"
        }
      ],
      "stateMutability": "view",
      "type": "function"
    },
    {
      "inputs": [],
      "name": "renounceOwnership",
      "outputs": [],
      "stateMutability": "nonpayable",
      "type": "function"
    },
    {
      "inputs": [
        {
          "internalType": "address",
          "name": "impl",
          "type": "address"
        }
      ],
      "name": "setImplementation",
      "outputs": [],
      "stateMutability": "nonpayable",
      "type": "function"
    },
    {
      "inputs": [
        {
          "internalType": "address",
          "name": "newOwner",
          "type": "address"
        }
      ],
      "name": "transferOwnership",
      "outputs": [],
      "stateMutability": "nonpayable",
      "type": "function"
    },
    {
      "inputs": [
        {
          "internalType": "address",
          "name": "newImplementation",
          "type": "address"
        }
      ],
      "name": "upgradeTo",
      "outputs": [],
      "stateMutability": "nonpayable",
      "type": "function"
    },
    {
      "inputs": [
        {
          "internalType": "address",
          "name": "newImplementation",
          "type": "address"
        },
        {
          "internalType": "bytes",
          "name": "data",
          "type": "bytes"
        }
      ],
      "name": "upgradeToAndCall",
      "outputs": [],
      "stateMutability": "payable",
      "type": "function"
    },
    {
      "stateMutability": "payable",
      "type": "receive"
    }
  ],
  "bytecode": {
    "object": "0x60a06040523060805234801561001457600080fd5b5061001e33610023565b610073565b600080546001600160a01b038381166001600160a01b0319831681178455604051919092169283917f8be0079c531659141344cd1fd0a4f28419497f9722a3daafe3b4186f6b6457e09190a35050565b608051610cf16100aa600039600081816101bc01528181610205015281816102a4015281816102e401526103770152610cf16000f3fe60806040526004361061007f5760003560e01c80638da5cb5b1161004e5780638da5cb5b14610106578063aaf10f4214610138578063d784d42614610156578063f2fde38b146101765761008e565b80633659cfe6146100965780634f1ef286146100b657806352d1902d146100c9578063715018a6146100f15761008e565b3661008e5761008c610196565b005b61008c610196565b3480156100a257600080fd5b5061008c6100b1366004610a5d565b6101b2565b61008c6100c4366004610a8e565b61029a565b3480156100d557600080fd5b506100de61036a565b6040519081526020015b60405180910390f35b3480156100fd57600080fd5b5061008c61041d565b34801561011257600080fd5b506000546001600160a01b03165b6040516001600160a01b0390911681526020016100e8565b34801561014457600080fd5b506001546001600160a01b0316610120565b34801561016257600080fd5b5061008c610171366004610a5d565b61042f565b34801561018257600080fd5b5061008c610191366004610a5d565b610483565b6101b06101ab6001546001600160a01b031690565b6104ca565b565b6001600160a01b037f00000000000000000000000000000000000000000000000000000000000000001630036102035760405162461bcd60e51b81526004016101fa90610b50565b60405180910390fd5b7f00000000000000000000000000000000000000000000000000000000000000006001600160a01b031661024c600080516020610c75833981519152546001600160a01b031690565b6001600160a01b0316146102725760405162461bcd60e51b81526004016101fa90610b9c565b61027b816104f3565b6040805160008082526020820190925261029791839190610560565b50565b6001600160a01b037f00000000000000000000000000000000000000000000000000000000000000001630036102e25760405162461bcd60e51b81526004016101fa90610b50565b7f00000000000000000000000000000000000000000000000000000000000000006001600160a01b031661032b600080516020610c75833981519152546001600160a01b031690565b6001600160a01b0316146103515760405162461bcd60e51b81526004016101fa90610b9c565b61035a826104f3565b61036682826001610560565b5050565b6000306001600160a01b037f0000000000000000000000000000000000000000000000000000000000000000161461040a5760405162461bcd60e51b815260206004820152603860248201527f555550535570677261646561626c653a206d757374206e6f742062652063616c60448201527f6c6564207468726f7567682064656c656761746563616c6c000000000000000060648201526084016101fa565b50600080516020610c7583398151915290565b6104256106cb565b6101b06000610725565b6104376106cb565b600180546001600160a01b0319166001600160a01b03831690811790915560405130907fcfbf4028add9318bbf716f08c348595afb063b0e9feed1f86d33681a4b3ed4d390600090a350565b61048b6106cb565b6040516001600160a01b0382169033907f8be0079c531659141344cd1fd0a4f28419497f9722a3daafe3b4186f6b6457e090600090a361029781610775565b3660008037600080366000845af43d6000803e8080156104e9573d6000f35b3d6000fd5b505050565b6000546001600160a01b031633146104375760405162461bcd60e51b815260206004820152602a60248201527f46616272696361546f6b656e50726f78793a2063616c6c6572206973206e6f74604482015269103a34329037bbb732b960b11b60648201526084016101fa565b7f4910fdfa16fed3260ed0e7147f7cc6da11a60208b5b9406d12a635614ffd91435460ff1615610593576104ee836107eb565b826001600160a01b03166352d1902d6040518163ffffffff1660e01b8152600401602060405180830381865afa9250505080156105ed575060408051601f3d908101601f191682019092526105ea91810190610be8565b60015b6106505760405162461bcd60e51b815260206004820152602e60248201527f45524331393637557067726164653a206e657720696d706c656d656e7461746960448201526d6f6e206973206e6f74205555505360901b60648201526084016101fa565b600080516020610c7583398151915281146106bf5760405162461bcd60e51b815260206004820152602960248201527f45524331393637557067726164653a20756e737570706f727465642070726f786044820152681a58589b195555525160ba1b60648201526084016101fa565b506104ee838383610887565b6000546001600160a01b031633146101b05760405162461bcd60e51b815260206004820181905260248201527f4f776e61626c653a2063616c6c6572206973206e6f7420746865206f776e657260448201526064016101fa565b600080546001600160a01b038381166001600160a01b0319831681178455604051919092169283917f8be0079c531659141344cd1fd0a4f28419497f9722a3daafe3b4186f6b6457e09190a35050565b61077d6106cb565b6001600160a01b0381166107e25760405162461bcd60e51b815260206004820152602660248201527f4f776e61626c653a206e6577206f776e657220697320746865207a65726f206160448201526564647265737360d01b60648201526084016101fa565b61029781610725565b6001600160a01b0381163b6108585760405162461bcd60e51b815260206004820152602d60248201527f455243313936373a206e657720696d706c656d656e746174696f6e206973206e60448201526c1bdd08184818dbdb9d1c9858dd609a1b60648201526084016101fa565b600080516020610c7583398151915280546001600160a01b0319166001600160a01b0392909216919091179055565b610890836108b2565b60008251118061089d5750805b156104ee576108ac83836108f2565b50505050565b6108bb816107eb565b6040516001600160a01b038216907fbc7cd75a20ee27fd9adebab32041f755214dbc6bffa90cc0225b39da2e5c2d3b90600090a250565b60606109178383604051806060016040528060278152602001610c956027913961091e565b9392505050565b6060600080856001600160a01b03168560405161093b9190610c25565b600060405180830381855af49150503d8060008114610976576040519150601f19603f3d011682016040523d82523d6000602084013e61097b565b606091505b509150915061098c86838387610996565b9695505050505050565b60608315610a055782516000036109fe576001600160a01b0385163b6109fe5760405162461bcd60e51b815260206004820152601d60248201527f416464726573733a2063616c6c20746f206e6f6e2d636f6e747261637400000060448201526064016101fa565b5081610a0f565b610a0f8383610a17565b949350505050565b815115610a275781518083602001fd5b8060405162461bcd60e51b81526004016101fa9190610c41565b80356001600160a01b0381168114610a5857600080fd5b919050565b600060208284031215610a6f57600080fd5b61091782610a41565b634e487b7160e01b600052604160045260246000fd5b60008060408385031215610aa157600080fd5b610aaa83610a41565b9150602083013567ffffffffffffffff80821115610ac757600080fd5b818501915085601f830112610adb57600080fd5b813581811115610aed57610aed610a78565b604051601f8201601f19908116603f01168101908382118183101715610b1557610b15610a78565b81604052828152886020848701011115610b2e57600080fd5b8260208601602083013760006020848301015280955050505050509250929050565b6020808252602c908201527f46756e6374696f6e206d7573742062652063616c6c6564207468726f7567682060408201526b19195b1959d85d1958d85b1b60a21b606082015260800190565b6020808252602c908201527f46756e6374696f6e206d7573742062652063616c6c6564207468726f7567682060408201526b6163746976652070726f787960a01b606082015260800190565b600060208284031215610bfa57600080fd5b5051919050565b60005b83811015610c1c578181015183820152602001610c04565b50506000910152565b60008251610c37818460208701610c01565b9190910192915050565b6020815260008251806020840152610c60816040850160208701610c01565b601f01601f1916919091016040019291505056fe360894a13ba1a3210667c828492db98dca3e2076cc3735a920a3ca505d382bbc416464726573733a206c6f772d6c6576656c2064656c65676174652063616c6c206661696c6564a26469706673582212204e90f6bbb7be4cf16ce78a1c7162c52bf34fd1cd800fa9ccf5337b89207e94dc64736f6c63430008110033",
    "linkReferences": {}
  },
  "methodIdentifiers": {
    "getImplementation()": "aaf10f42",
    "owner()": "8da5cb5b",
    "proxiableUUID()": "52d1902d",
    "renounceOwnership()": "715018a6",
    "setImplementation(address)": "d784d426",
    "transferOwnership(address)": "f2fde38b",
    "upgradeTo(address)": "3659cfe6",
    "upgradeToAndCall(address,bytes)": "4f1ef286"
  },
  "id": 20
}