{
  "abi": [
    {
      "anonymous": false,
      "inputs": [
        {
          "indexed": true,
          "internalType": "address",
          "name": "account",
          "type": "address"
        },
        {
          "indexed": true,
          "internalType": "address",
          "name": "operator",
          "type": "address"
        },
        {
          "indexed": false,
          "internalType": "bool",
          "name": "approved",
          "type": "bool"
        }
      ],
      "name": "ApprovalForAll",
      "type": "event"
    },
    {
      "anonymous": false,
      "inputs": [
        {
          "indexed": true,
          "internalType": "address",
          "name": "previousOwner",
          "type": "address"
        },
        {
          "indexed": true,
          "internalType": "address",
          "name": "newOwner",
          "type": "address"
        }
      ],
      "name": "OwnershipTransferred",
      "type": "event"
    },
    {
      "anonymous": false,
      "inputs": [
        {
          "indexed": false,
          "internalType": "address",
          "name": "account",
          "type": "address"
        }
      ],
      "name": "Paused",
      "type": "event"
    },
    {
      "anonymous": false,
      "inputs": [
        {
          "indexed": true,
          "internalType": "address",
          "name": "operator",
          "type": "address"
        },
        {
          "indexed": true,
          "internalType": "address",
          "name": "from",
          "type": "address"
        },
        {
          "indexed": true,
          "internalType": "address",
          "name": "to",
          "type": "address"
        },
        {
          "indexed": false,
          "internalType": "uint256[]",
          "name": "ids",
          "type": "uint256[]"
        },
        {
          "indexed": false,
          "internalType": "uint256[]",
          "name": "values",
          "type": "uint256[]"
        }
      ],
      "name": "TransferBatch",
      "type": "event"
    },
    {
      "anonymous": false,
      "inputs": [
        {
          "indexed": true,
          "internalType": "address",
          "name": "operator",
          "type": "address"
        },
        {
          "indexed": true,
          "internalType": "address",
          "name": "from",
          "type": "address"
        },
        {
          "indexed": true,
          "internalType": "address",
          "name": "to",
          "type": "address"
        },
        {
          "indexed": false,
          "internalType": "uint256",
          "name": "id",
          "type": "uint256"
        },
        {
          "indexed": false,
          "internalType": "uint256",
          "name": "value",
          "type": "uint256"
        }
      ],
      "name": "TransferSingle",
      "type": "event"
    },
    {
      "anonymous": false,
      "inputs": [
        {
          "indexed": false,
          "internalType": "string",
          "name": "value",
          "type": "string"
        },
        {
          "indexed": true,
          "internalType": "uint256",
          "name": "id",
          "type": "uint256"
        }
      ],
      "name": "URI",
      "type": "event"
    },
    {
      "anonymous": false,
      "inputs": [
        {
          "indexed": false,
          "internalType": "address",
          "name": "account",
          "type": "address"
        }
      ],
      "name": "Unpaused",
      "type": "event"
    },
    {
      "anonymous": false,
      "inputs": [
        {
          "indexed": false,
          "internalType": "uint256",
          "name": "",
          "type": "uint256"
        },
        {
          "indexed": false,
          "internalType": "string",
          "name": "newData",
          "type": "string"
        }
      ],
      "name": "UpdateConfiguration",
      "type": "event"
    },
    {
      "anonymous": false,
      "inputs": [
        {
          "indexed": false,
          "internalType": "uint256",
          "name": "",
          "type": "uint256"
        },
        {
          "indexed": false,
          "internalType": "string",
          "name": "newData",
          "type": "string"
        }
      ],
      "name": "UpdateOperatingAgreement",
      "type": "event"
    },
    {
      "anonymous": false,
      "inputs": [
        {
          "indexed": false,
          "internalType": "uint256",
          "name": "tokenId",
          "type": "uint256"
        },
        {
          "indexed": false,
          "internalType": "string",
          "name": "dataType",
          "type": "string"
        },
        {
          "indexed": false,
          "internalType": "address",
          "name": "validator",
          "type": "address"
        }
      ],
      "name": "UpdateValidator",
      "type": "event"
    },
    {
      "inputs": [
        {
          "internalType": "uint256",
          "name": "",
          "type": "uint256"
        }
      ],
      "name": "_property",
      "outputs": [
        {
          "internalType": "uint256",
          "name": "supply",
          "type": "uint256"
        },
        {
          "internalType": "string",
          "name": "operatingAgreement",
          "type": "string"
        },
        {
          "internalType": "string",
          "name": "definition",
          "type": "string"
        },
        {
          "internalType": "string",
          "name": "configuration",
          "type": "string"
        },
        {
          "internalType": "address",
          "name": "validator",
          "type": "address"
        }
      ],
      "stateMutability": "view",
      "type": "function"
    },
    {
      "inputs": [],
      "name": "_validator",
      "outputs": [
        {
          "internalType": "address",
          "name": "",
          "type": "address"
        }
      ],
      "stateMutability": "view",
      "type": "function"
    },
    {
      "inputs": [
        {
          "internalType": "address",
          "name": "account",
          "type": "address"
        },
        {
          "internalType": "uint256",
          "name": "id",
          "type": "uint256"
        }
      ],
      "name": "balanceOf",
      "outputs": [
        {
          "internalType": "uint256",
          "name": "",
          "type": "uint256"
        }
      ],
      "stateMutability": "view",
      "type": "function"
    },
    {
      "inputs": [
        {
          "internalType": "address[]",
          "name": "accounts",
          "type": "address[]"
        },
        {
          "internalType": "uint256[]",
          "name": "ids",
          "type": "uint256[]"
        }
      ],
      "name": "balanceOfBatch",
      "outputs": [
        {
          "internalType": "uint256[]",
          "name": "",
          "type": "uint256[]"
        }
      ],
      "stateMutability": "view",
      "type": "function"
    },
    {
      "inputs": [
        {
          "internalType": "address",
          "name": "operator",
          "type": "address"
        },
        {
          "internalType": "uint256",
          "name": "sessionId",
          "type": "uint256"
        }
      ],
      "name": "generateId",
      "outputs": [
        {
          "internalType": "uint256",
          "name": "",
          "type": "uint256"
        }
      ],
      "stateMutability": "view",
      "type": "function"
    },
    {
      "inputs": [
        {
          "internalType": "address",
          "name": "account",
          "type": "address"
        },
        {
          "internalType": "address",
          "name": "operator",
          "type": "address"
        }
      ],
      "name": "isApprovedForAll",
      "outputs": [
        {
          "internalType": "bool",
          "name": "",
          "type": "bool"
        }
      ],
      "stateMutability": "view",
      "type": "function"
    },
    {
      "inputs": [
        {
          "internalType": "address",
          "name": "to",
          "type": "address"
        },
        {
          "internalType": "uint256",
          "name": "sessionId",
          "type": "uint256"
        },
        {
          "internalType": "uint256",
          "name": "supply",
          "type": "uint256"
        },
        {
          "internalType": "string",
          "name": "definition",
          "type": "string"
        },
        {
          "internalType": "string",
          "name": "operatingAgreement",
          "type": "string"
        },
        {
          "internalType": "string",
          "name": "configuration",
          "type": "string"
        },
        {
          "internalType": "address",
          "name": "validator",
          "type": "address"
        }
      ],
      "name": "mint",
      "outputs": [
        {
          "internalType": "uint256",
          "name": "",
          "type": "uint256"
        }
      ],
      "stateMutability": "nonpayable",
      "type": "function"
    },
    {
      "inputs": [
        {
          "internalType": "address",
          "name": "to",
          "type": "address"
        },
        {
          "internalType": "uint256[]",
          "name": "sessionIds",
          "type": "uint256[]"
        },
        {
          "internalType": "uint256[]",
          "name": "supplies",
          "type": "uint256[]"
        },
        {
          "internalType": "string[]",
          "name": "definitions",
          "type": "string[]"
        },
        {
          "internalType": "string[]",
          "name": "operatingAgreements",
          "type": "string[]"
        },
        {
          "internalType": "string[]",
          "name": "configurations",
          "type": "string[]"
        },
        {
          "internalType": "address[]",
          "name": "validators",
          "type": "address[]"
        }
      ],
      "name": "mintBatch",
      "outputs": [
        {
          "internalType": "uint256[]",
          "name": "ids",
          "type": "uint256[]"
        }
      ],
      "stateMutability": "nonpayable",
      "type": "function"
    },
    {
      "inputs": [],
      "name": "owner",
      "outputs": [
        {
          "internalType": "address",
          "name": "",
          "type": "address"
        }
      ],
      "stateMutability": "view",
      "type": "function"
    },
    {
      "inputs": [],
      "name": "pause",
      "outputs": [],
      "stateMutability": "nonpayable",
      "type": "function"
    },
    {
      "inputs": [],
      "name": "paused",
      "outputs": [
        {
          "internalType": "bool",
          "name": "",
          "type": "bool"
        }
      ],
      "stateMutability": "view",
      "type": "function"
    },
    {
      "inputs": [],
      "name": "renounceOwnership",
      "outputs": [],
      "stateMutability": "nonpayable",
      "type": "function"
    },
    {
      "inputs": [
        {
          "internalType": "address",
          "name": "from",
          "type": "address"
        },
        {
          "internalType": "address",
          "name": "to",
          "type": "address"
        },
        {
          "internalType": "uint256[]",
          "name": "ids",
          "type": "uint256[]"
        },
        {
          "internalType": "uint256[]",
          "name": "amounts",
          "type": "uint256[]"
        },
        {
          "internalType": "bytes",
          "name": "data",
          "type": "bytes"
        }
      ],
      "name": "safeBatchTransferFrom",
      "outputs": [],
      "stateMutability": "nonpayable",
      "type": "function"
    },
    {
      "inputs": [
        {
          "internalType": "address",
          "name": "from",
          "type": "address"
        },
        {
          "internalType": "address",
          "name": "to",
          "type": "address"
        },
        {
          "internalType": "uint256",
          "name": "id",
          "type": "uint256"
        },
        {
          "internalType": "uint256",
          "name": "amount",
          "type": "uint256"
        },
        {
          "internalType": "bytes",
          "name": "data",
          "type": "bytes"
        }
      ],
      "name": "safeTransferFrom",
      "outputs": [],
      "stateMutability": "nonpayable",
      "type": "function"
    },
    {
      "inputs": [
        {
          "internalType": "address",
          "name": "operator",
          "type": "address"
        },
        {
          "internalType": "bool",
          "name": "approved",
          "type": "bool"
        }
      ],
      "name": "setApprovalForAll",
      "outputs": [],
      "stateMutability": "nonpayable",
      "type": "function"
    },
    {
      "inputs": [
        {
          "internalType": "bytes4",
          "name": "interfaceId",
          "type": "bytes4"
        }
      ],
      "name": "supportsInterface",
      "outputs": [
        {
          "internalType": "bool",
          "name": "",
          "type": "bool"
        }
      ],
      "stateMutability": "view",
      "type": "function"
    },
    {
      "inputs": [
        {
          "internalType": "address",
          "name": "newOwner",
          "type": "address"
        }
      ],
      "name": "transferOwnership",
      "outputs": [],
      "stateMutability": "nonpayable",
      "type": "function"
    },
    {
      "inputs": [],
      "name": "unpause",
      "outputs": [],
      "stateMutability": "nonpayable",
      "type": "function"
    },
    {
      "inputs": [
        {
          "internalType": "string",
          "name": "configuration",
          "type": "string"
        },
        {
          "internalType": "uint256",
          "name": "id",
          "type": "uint256"
        }
      ],
      "name": "updateConfiguration",
      "outputs": [
        {
          "internalType": "bool",
          "name": "",
          "type": "bool"
        }
      ],
      "stateMutability": "nonpayable",
      "type": "function"
    },
    {
      "inputs": [
        {
          "internalType": "string",
          "name": "operatingAgreement",
          "type": "string"
        },
        {
          "internalType": "uint256",
          "name": "id",
          "type": "uint256"
        }
      ],
      "name": "updateOperatingAgreement",
      "outputs": [
        {
          "internalType": "bool",
          "name": "",
          "type": "bool"
        }
      ],
      "stateMutability": "nonpayable",
      "type": "function"
    },
    {
      "inputs": [
        {
          "internalType": "address",
          "name": "validator",
          "type": "address"
        },
        {
          "internalType": "uint256",
          "name": "id",
          "type": "uint256"
        }
      ],
      "name": "updateValidator",
      "outputs": [
        {
          "internalType": "bool",
          "name": "",
          "type": "bool"
        }
      ],
      "stateMutability": "nonpayable",
      "type": "function"
    },
    {
      "inputs": [
        {
          "internalType": "uint256",
          "name": "id",
          "type": "uint256"
        }
      ],
      "name": "uri",
      "outputs": [
        {
          "internalType": "string",
          "name": "",
          "type": "string"
        }
      ],
      "stateMutability": "view",
      "type": "function"
    }
  ],
  "bytecode": {
    "object": "0x6080604052600480546001600160a01b03191673d9145cce52d386f254917e481eb44e9943f3913817905534801561003657600080fd5b5061004033610052565b6000805460ff60a01b191690556100a2565b600080546001600160a01b038381166001600160a01b0319831681178455604051919092169283917f8be0079c531659141344cd1fd0a4f28419497f9722a3daafe3b4186f6b6457e09190a35050565b61309380620000b26000396000f3fe608060405234801561001057600080fd5b50600436106101415760003560e01c806382f5f85e116100b8578063dc5180e61161007c578063dc5180e6146102b6578063e6635f5d146102c9578063e785fe52146102dc578063e985e9c5146102ef578063f242432a14610302578063f2fde38b1461031557600080fd5b806382f5f85e146102505780638456cb59146102635780638da5cb5b1461026b578063a22cb46514610290578063b36c9db5146102a357600080fd5b8063353f54cc1161010a578063353f54cc146101d75780633f4ba83a146101f75780634e1273f4146101ff5780635c975abb146102125780636a98229814610224578063715018a61461024857600080fd5b8062fdd58e1461014657806301ffc9a71461016c5780630e89341c1461018f5780631a61224c146101af5780632eb2c2d6146101c2575b600080fd5b610159610154366004612268565b610328565b6040519081526020015b60405180910390f35b61017f61017a3660046122a8565b6103c3565b6040519015158152602001610163565b6101a261019d3660046122c5565b610413565b604051610163919061232e565b6101596101bd366004612406565b61049f565b6101d56101d0366004612556565b610504565b005b6101ea6101e53660046126f6565b610558565b6040516101639190612837565b6101d5610728565b6101ea61020d36600461284a565b610742565b600054600160a01b900460ff1661017f565b6102376102323660046122c5565b61086b565b6040516101639594939291906128ad565b6101d5610a3b565b61015961025e366004612268565b610a4d565b6101d5610ae5565b6000546001600160a01b03165b6040516001600160a01b039091168152602001610163565b6101d561029e366004612907565b610afd565b61017f6102b1366004612943565b610b14565b61017f6102c4366004612943565b610bcd565b61017f6102d7366004612268565b610c75565b600454610278906001600160a01b031681565b61017f6102fd366004612987565b610d5d565b6101d56103103660046129ba565b610d96565b6101d5610323366004612a1e565b610de3565b60006001600160a01b0383166103985760405162461bcd60e51b815260206004820152602a60248201527f455243313135353a2061646472657373207a65726f206973206e6f742061207660448201526930b634b21037bbb732b960b11b60648201526084015b60405180910390fd5b5060008181526001602090815260408083206001600160a01b03861684529091529020545b92915050565b60006001600160e01b03198216636cdb3d1360e11b14806103f457506001600160e01b031982166303a24d0760e21b145b806103bd57506301ffc9a760e01b6001600160e01b03198316146103bd565b6000818152600360205260409081902060049081015491516303a24d0760e21b81529081018390526060916001600160a01b0316908190630e89341c90602401600060405180830381865afa158015610470573d6000803e3d6000fd5b505050506040513d6000823e601f3d908101601f191682016040526104989190810190612a39565b9392505050565b60006104a9610e5c565b6104b1612214565b86815260208082018690526040808301889052606083018690526001600160a01b0385166080840152805191820190526000808252906104f6908b908b908590610ea9565b9a9950505050505050505050565b61050c610e5c565b6001600160a01b03851633148061052857506105288533610d5d565b6105445760405162461bcd60e51b815260040161038f90612ab0565b6105518585858585611138565b5050505050565b6060610562610e5c565b86516000816001600160401b0381111561057e5761057e612341565b6040519080825280602002602001820160405280156105b757816020015b6105a4612214565b81526020019060019003908161059c5790505b50905060005b8281101561070c578881815181106105d7576105d7612afe565b60200260200101518282815181106105f1576105f1612afe565b6020026020010151600001818152505086818151811061061357610613612afe565b602002602001015182828151811061062d5761062d612afe565b60200260200101516020018190525087818151811061064e5761064e612afe565b602002602001015182828151811061066857610668612afe565b60200260200101516040018190525085818151811061068957610689612afe565b60200260200101518282815181106106a3576106a3612afe565b6020026020010151606001819052508481815181106106c4576106c4612afe565b60200260200101518282815181106106de576106de612afe565b60209081029190910101516001600160a01b039091166080909101528061070481612b2a565b9150506105bd565b506104f68a8a836040518060200160405280600081525061133c565b6107306117a1565b6107386117fb565b61074061184b565b565b606081518351146107a75760405162461bcd60e51b815260206004820152602960248201527f455243313135353a206163636f756e747320616e6420696473206c656e677468604482015268040dad2e6dac2e8c6d60bb1b606482015260840161038f565b600083516001600160401b038111156107c2576107c2612341565b6040519080825280602002602001820160405280156107eb578160200160208202803683370190505b50905060005b84518110156108635761083685828151811061080f5761080f612afe565b602002602001015185838151811061082957610829612afe565b6020026020010151610328565b82828151811061084857610848612afe565b602090810291909101015261085c81612b2a565b90506107f1565b509392505050565b6003602052600090815260409020805460018201805491929161088d90612b43565b80601f01602080910402602001604051908101604052809291908181526020018280546108b990612b43565b80156109065780601f106108db57610100808354040283529160200191610906565b820191906000526020600020905b8154815290600101906020018083116108e957829003601f168201915b50505050509080600201805461091b90612b43565b80601f016020809104026020016040519081016040528092919081815260200182805461094790612b43565b80156109945780601f1061096957610100808354040283529160200191610994565b820191906000526020600020905b81548152906001019060200180831161097757829003601f168201915b5050505050908060030180546109a990612b43565b80601f01602080910402602001604051908101604052809291908181526020018280546109d590612b43565b8015610a225780601f106109f757610100808354040283529160200191610a22565b820191906000526020600020905b815481529060010190602001808311610a0557829003601f168201915b505050600490930154919250506001600160a01b031685565b610a436117a1565b61074060006118a0565b6000610a57610e5c565b6000610a6d846001600160a01b031660146118f0565b90506000610a7a46611a8b565b82610a8486611a8b565b604051602001610a9693929190612b7d565b6040516020818303038152906040529050600081604051602001610aba9190612bc0565b60408051808303601f1901815291905280516020909101206001600160401b03169695505050505050565b610aed6117a1565b610af5610e5c565b610740611b1d565b610b05610e5c565b610b10338383611b60565b5050565b6000610b1e610e5c565b610b2b335b836046611c48565b610b6f5760405162461bcd60e51b81526020600482015260156024820152744f6e6c79203e203730252063616e2075706461746560581b604482015260640161038f565b6000828152600360205260409020600101610b8a8482612c27565b507f6b491e3cbe1a3d27a215d960a465834cf22a7e3e87ffe8be5724ab67f72583fb8284604051610bbc929190612ce6565b60405180910390a150600192915050565b6000610bd7610e5c565b610be333836032611c48565b610c275760405162461bcd60e51b81526020600482015260156024820152744f6e6c79203e203530252063616e2075706461746560581b604482015260640161038f565b600082815260036020819052604090912001610c438482612c27565b507fb56c2e2e610c525cd60429993be20aab298f5bc84e28ad1a0b8eb2c2ca8559208284604051610bbc929190612ce6565b6000610c7f610e5c565b610c8833610b23565b610ccc5760405162461bcd60e51b81526020600482015260156024820152744f6e6c79203e203730252063616e2075706461746560581b604482015260640161038f565b6000828152600360205260409081902060040180546001600160a01b0386166001600160a01b0319909116179055517f56137a68f73d3785a7a236d27a378cb92851e1b1d68317de555fc4fde9c17add90610bbc9084908690918252606060208301819052600990830152683b30b634b230ba37b960b91b60808301526001600160a01b0316604082015260a00190565b6000610d67610e5c565b506001600160a01b03918216600090815260026020908152604080832093909416825291909152205460ff1690565b610d9e610e5c565b6001600160a01b038516331480610dba5750610dba8533610d5d565b610dd65760405162461bcd60e51b815260040161038f90612ab0565b6105518585858585611cb9565b610deb6117a1565b6001600160a01b038116610e505760405162461bcd60e51b815260206004820152602660248201527f4f776e61626c653a206e6577206f776e657220697320746865207a65726f206160448201526564647265737360d01b606482015260840161038f565b610e59816118a0565b50565b600054600160a01b900460ff16156107405760405162461bcd60e51b815260206004820152601060248201526f14185d5cd8589b194e881c185d5cd95960821b604482015260640161038f565b6000610eb3610e5c565b6001600160a01b038516610ed95760405162461bcd60e51b815260040161038f90612d07565b600083604001515111610f275760405162461bcd60e51b81526020600482015260166024820152751119599a5b9a5d1a5bdb881a5cc81c995c5d5a5c995960521b604482015260640161038f565b60008411610f775760405162461bcd60e51b815260206004820152601b60248201527f56616c69642073657373696f6e49642069732072657175697265640000000000604482015260640161038f565b8251610fbb5760405162461bcd60e51b81526020600482015260136024820152724d696e696d756d20737570706c79206973203160681b604482015260640161038f565b60808301516001600160a01b0316610fdf576004546001600160a01b031660808401525b82516000610fed3387610a4d565b6000818152600360205260409020549091501561101c5760405162461bcd60e51b815260040161038f90612d48565b60008181526001602090815260408083206001600160a01b038b1684529091528120805484929061104e908490612d9c565b909155505060008181526003602090815260409091208651815590860151869190600182019061107e9082612c27565b50604082015160028201906110939082612c27565b50606082015160038201906110a89082612c27565b5060809190910151600490910180546001600160a01b0319166001600160a01b0392831617905587166000336001600160a01b03167fc3d58168c5ae7397731d063d5bbf3d657854427343f4c083240f7aacaa2d0f628486604051611117929190918252602082015260400190565b60405180910390a461112e33600089848689611e0b565b9695505050505050565b611140610e5c565b81518351146111a25760405162461bcd60e51b815260206004820152602860248201527f455243313135353a2069647320616e6420616d6f756e7473206c656e677468206044820152670dad2e6dac2e8c6d60c31b606482015260840161038f565b6001600160a01b0384166111c85760405162461bcd60e51b815260040161038f90612daf565b336111d7818787878787611f77565b60005b84518110156112c05760008582815181106111f7576111f7612afe565b60200260200101519050600085838151811061121557611215612afe565b60209081029190910181015160008481526001835260408082206001600160a01b038e1683529093529190912054909150818110156112665760405162461bcd60e51b815260040161038f90612df4565b60008381526001602090815260408083206001600160a01b038e8116855292528083208585039055908b168252812080548492906112a5908490612d9c565b92505081905550505050806112b990612b2a565b90506111da565b50846001600160a01b0316866001600160a01b0316826001600160a01b03167f4a39dc06d4c0dbc64b70af90fd698a233a518aa5d07e595d983b8c0526c8f7fb8787604051611310929190612e3e565b60405180910390a4611326818787878787611f77565b611334818787878787611f7f565b505050505050565b6060611346610e5c565b6001600160a01b03851661136c5760405162461bcd60e51b815260040161038f90612d07565b82518451146113cf5760405162461bcd60e51b815260206004820152602960248201527f73657373696f6e49647320616e642070726f70657274696573206c656e677468604482015268040dad2e6dac2e8c6d60bb1b606482015260840161038f565b600084516001600160401b038111156113ea576113ea612341565b604051908082528060200260200182016040528015611413578160200160208202803683370190505b509050600085516001600160401b0381111561143157611431612341565b60405190808252806020026020018201604052801561145a578160200160208202803683370190505b50905060005b865181101561173857600086828151811061147d5761147d612afe565b60200260200101516040015151116114d05760405162461bcd60e51b81526020600482015260166024820152751119599a5b9a5d1a5bdb881a5cc81c995c5d5a5c995960521b604482015260640161038f565b60008782815181106114e4576114e4612afe565b6020026020010151116115395760405162461bcd60e51b815260206004820152601b60248201527f56616c69642073657373696f6e49642069732072657175697265640000000000604482015260640161038f565b600086828151811061154d5761154d612afe565b6020026020010151600001511161159c5760405162461bcd60e51b81526020600482015260136024820152724d696e696d756d20737570706c79206973203160681b604482015260640161038f565b60006115c1338984815181106115b4576115b4612afe565b6020026020010151610a4d565b600081815260036020526040902054909150156115f05760405162461bcd60e51b815260040161038f90612d48565b600087838151811061160457611604612afe565b60200260200101516000015190508185848151811061162557611625612afe565b6020026020010181815250508084848151811061164457611644612afe565b60209081029190910181019190915260008381526001825260408082206001600160a01b038e1683529092529081208054839290611683908490612d9c565b9250508190555087838151811061169c5761169c612afe565b60209081029190910181015160008481526003835260409020815181559181015190919060018201906116cf9082612c27565b50604082015160028201906116e49082612c27565b50606082015160038201906116f99082612c27565b5060809190910151600490910180546001600160a01b0319166001600160a01b039092169190911790555081905061173081612b2a565b915050611460565b506001600160a01b0387166000336001600160a01b03167f4a39dc06d4c0dbc64b70af90fd698a233a518aa5d07e595d983b8c0526c8f7fb8585604051611780929190612e3e565b60405180910390a461179733600089858589611f7f565b5095945050505050565b6000546001600160a01b031633146107405760405162461bcd60e51b815260206004820181905260248201527f4f776e61626c653a2063616c6c6572206973206e6f7420746865206f776e6572604482015260640161038f565b600054600160a01b900460ff166107405760405162461bcd60e51b815260206004820152601460248201527314185d5cd8589b194e881b9bdd081c185d5cd95960621b604482015260640161038f565b6118536117fb565b6000805460ff60a01b191690557f5db9ee0a495bf2e6ff9c91a7834c1ba4fdd244a5e8aa4e537bd38aeae4b073aa335b6040516001600160a01b03909116815260200160405180910390a1565b600080546001600160a01b038381166001600160a01b0319831681178455604051919092169283917f8be0079c531659141344cd1fd0a4f28419497f9722a3daafe3b4186f6b6457e09190a35050565b606060006118ff836002612e6c565b61190a906002612d9c565b6001600160401b0381111561192157611921612341565b6040519080825280601f01601f19166020018201604052801561194b576020820181803683370190505b509050600360fc1b8160008151811061196657611966612afe565b60200101906001600160f81b031916908160001a905350600f60fb1b8160018151811061199557611995612afe565b60200101906001600160f81b031916908160001a90535060006119b9846002612e6c565b6119c4906001612d9c565b90505b6001811115611a3c576f181899199a1a9b1b9c1cb0b131b232b360811b85600f16601081106119f8576119f8612afe565b1a60f81b828281518110611a0e57611a0e612afe565b60200101906001600160f81b031916908160001a90535060049490941c93611a3581612e83565b90506119c7565b5083156104985760405162461bcd60e51b815260206004820181905260248201527f537472696e67733a20686578206c656e67746820696e73756666696369656e74604482015260640161038f565b60606000611a9883612042565b60010190506000816001600160401b03811115611ab757611ab7612341565b6040519080825280601f01601f191660200182016040528015611ae1576020820181803683370190505b5090508181016020015b600019016f181899199a1a9b1b9c1cb0b131b232b360811b600a86061a8153600a8504945084611aeb57509392505050565b611b25610e5c565b6000805460ff60a01b1916600160a01b1790557f62e78cea01bee320cd4e420270b5ea74000d11b0c9f74754ebdbfc544b05a2586118833390565b611b68610e5c565b816001600160a01b0316836001600160a01b031603611bdb5760405162461bcd60e51b815260206004820152602960248201527f455243313135353a2073657474696e6720617070726f76616c20737461747573604482015268103337b91039b2b63360b91b606482015260840161038f565b6001600160a01b03838116600081815260026020908152604080832094871680845294825291829020805460ff191686151590811790915591519182527f17307eab39ab6107e8899845ad3d59bd9653f200f220920489ca2b5937696c31910160405180910390a3505050565b60008281526001602090815260408083206001600160a01b0387168452909152812054808203611c7c576000915050610498565b60008481526003602052604081205490819003611c9e57600092505050610498565b6000611cac8360648461211a565b9094109695505050505050565b611cc1610e5c565b6001600160a01b038416611ce75760405162461bcd60e51b815260040161038f90612daf565b336000611cf3856121c9565b90506000611d00856121c9565b9050611d10838989858589611f77565b60008681526001602090815260408083206001600160a01b038c16845290915290205485811015611d535760405162461bcd60e51b815260040161038f90612df4565b60008781526001602090815260408083206001600160a01b038d8116855292528083208985039055908a16825281208054889290611d92908490612d9c565b909155505060408051888152602081018890526001600160a01b03808b16928c821692918816917fc3d58168c5ae7397731d063d5bbf3d657854427343f4c083240f7aacaa2d0f62910160405180910390a4611df2848a8a86868a611f77565b611e00848a8a8a8a8a611e0b565b505050505050505050565b611e13610e5c565b6001600160a01b0384163b156113345760405163f23a6e6160e01b81526001600160a01b0385169063f23a6e6190611e579089908990889088908890600401612eb0565b6020604051808303816000875af1925050508015611e92575060408051601f3d908101601f19168201909252611e8f91810190612ef5565b60015b611f3e57611e9e612f12565b806308c379a003611ed75750611eb2612f2e565b80611ebd5750611ed9565b8060405162461bcd60e51b815260040161038f919061232e565b505b60405162461bcd60e51b815260206004820152603460248201527f455243313135353a207472616e7366657220746f206e6f6e2d455243313135356044820152732932b1b2b4bb32b91034b6b83632b6b2b73a32b960611b606482015260840161038f565b6001600160e01b0319811663f23a6e6160e01b14611f6e5760405162461bcd60e51b815260040161038f90612fb7565b50505050505050565b611334610e5c565b611f87610e5c565b6001600160a01b0384163b156113345760405163bc197c8160e01b81526001600160a01b0385169063bc197c8190611fcb9089908990889088908890600401612fff565b6020604051808303816000875af1925050508015612006575060408051601f3d908101601f1916820190925261200391810190612ef5565b60015b61201257611e9e612f12565b6001600160e01b0319811663bc197c8160e01b14611f6e5760405162461bcd60e51b815260040161038f90612fb7565b60008072184f03e93ff9f4daa797ed6e38ed64bf6a1f0160401b83106120815772184f03e93ff9f4daa797ed6e38ed64bf6a1f0160401b830492506040015b6d04ee2d6d415b85acef810000000083106120ad576d04ee2d6d415b85acef8100000000830492506020015b662386f26fc1000083106120cb57662386f26fc10000830492506010015b6305f5e10083106120e3576305f5e100830492506008015b61271083106120f757612710830492506004015b60648310612109576064830492506002015b600a83106103bd5760010192915050565b60008080600019858709858702925082811083820303915050806000036121545783828161214a5761214a612e9a565b0492505050610498565b80841161216057600080fd5b60008486880960026001871981018816978890046003810283188082028403028082028403028082028403028082028403028082028403029081029092039091026000889003889004909101858311909403939093029303949094049190911702949350505050565b6040805160018082528183019092526060916000919060208083019080368337019050509050828160008151811061220357612203612afe565b602090810291909101015292915050565b6040518060a001604052806000815260200160608152602001606081526020016060815260200160006001600160a01b031681525090565b80356001600160a01b038116811461226357600080fd5b919050565b6000806040838503121561227b57600080fd5b6122848361224c565b946020939093013593505050565b6001600160e01b031981168114610e5957600080fd5b6000602082840312156122ba57600080fd5b813561049881612292565b6000602082840312156122d757600080fd5b5035919050565b60005b838110156122f95781810151838201526020016122e1565b50506000910152565b6000815180845261231a8160208601602086016122de565b601f01601f19169290920160200192915050565b6020815260006104986020830184612302565b634e487b7160e01b600052604160045260246000fd5b601f8201601f191681016001600160401b038111828210171561237c5761237c612341565b6040525050565b60006001600160401b0382111561239c5761239c612341565b50601f01601f191660200190565b600082601f8301126123bb57600080fd5b81356123c681612383565b6040516123d38282612357565b8281528560208487010111156123e857600080fd5b82602086016020830137600092810160200192909252509392505050565b600080600080600080600060e0888a03121561242157600080fd5b61242a8861224c565b9650602088013595506040880135945060608801356001600160401b038082111561245457600080fd5b6124608b838c016123aa565b955060808a013591508082111561247657600080fd5b6124828b838c016123aa565b945060a08a013591508082111561249857600080fd5b506124a58a828b016123aa565b9250506124b460c0890161224c565b905092959891949750929550565b60006001600160401b038211156124db576124db612341565b5060051b60200190565b600082601f8301126124f657600080fd5b81356020612503826124c2565b6040516125108282612357565b83815260059390931b850182019282810191508684111561253057600080fd5b8286015b8481101561254b5780358352918301918301612534565b509695505050505050565b600080600080600060a0868803121561256e57600080fd5b6125778661224c565b94506125856020870161224c565b935060408601356001600160401b03808211156125a157600080fd5b6125ad89838a016124e5565b945060608801359150808211156125c357600080fd5b6125cf89838a016124e5565b935060808801359150808211156125e557600080fd5b506125f2888289016123aa565b9150509295509295909350565b600082601f83011261261057600080fd5b8135602061261d826124c2565b60405161262a8282612357565b83815260059390931b850182019282810191508684111561264a57600080fd5b8286015b8481101561254b5780356001600160401b0381111561266d5760008081fd5b61267b8986838b01016123aa565b84525091830191830161264e565b600082601f83011261269a57600080fd5b813560206126a7826124c2565b6040516126b48282612357565b83815260059390931b85018201928281019150868411156126d457600080fd5b8286015b8481101561254b576126e98161224c565b83529183019183016126d8565b600080600080600080600060e0888a03121561271157600080fd5b61271a8861224c565b965060208801356001600160401b038082111561273657600080fd5b6127428b838c016124e5565b975060408a013591508082111561275857600080fd5b6127648b838c016124e5565b965060608a013591508082111561277a57600080fd5b6127868b838c016125ff565b955060808a013591508082111561279c57600080fd5b6127a88b838c016125ff565b945060a08a01359150808211156127be57600080fd5b6127ca8b838c016125ff565b935060c08a01359150808211156127e057600080fd5b506127ed8a828b01612689565b91505092959891949750929550565b600081518084526020808501945080840160005b8381101561282c57815187529582019590820190600101612810565b509495945050505050565b60208152600061049860208301846127fc565b6000806040838503121561285d57600080fd5b82356001600160401b038082111561287457600080fd5b61288086838701612689565b9350602085013591508082111561289657600080fd5b506128a3858286016124e5565b9150509250929050565b85815260a0602082015260006128c660a0830187612302565b82810360408401526128d88187612302565b905082810360608401526128ec8186612302565b91505060018060a01b03831660808301529695505050505050565b6000806040838503121561291a57600080fd5b6129238361224c565b91506020830135801515811461293857600080fd5b809150509250929050565b6000806040838503121561295657600080fd5b82356001600160401b0381111561296c57600080fd5b612978858286016123aa565b95602094909401359450505050565b6000806040838503121561299a57600080fd5b6129a38361224c565b91506129b16020840161224c565b90509250929050565b600080600080600060a086880312156129d257600080fd5b6129db8661224c565b94506129e96020870161224c565b9350604086013592506060860135915060808601356001600160401b03811115612a1257600080fd5b6125f2888289016123aa565b600060208284031215612a3057600080fd5b6104988261224c565b600060208284031215612a4b57600080fd5b81516001600160401b03811115612a6157600080fd5b8201601f81018413612a7257600080fd5b8051612a7d81612383565b604051612a8a8282612357565b828152866020848601011115612a9f57600080fd5b61112e8360208301602087016122de565b6020808252602e908201527f455243313135353a2063616c6c6572206973206e6f7420746f6b656e206f776e60408201526d195c881bdc88185c1c1c9bdd995960921b606082015260800190565b634e487b7160e01b600052603260045260246000fd5b634e487b7160e01b600052601160045260246000fd5b600060018201612b3c57612b3c612b14565b5060010190565b600181811c90821680612b5757607f821691505b602082108103612b7757634e487b7160e01b600052602260045260246000fd5b50919050565b60008451612b8f8184602089016122de565b845190830190612ba38183602089016122de565b8451910190612bb68183602088016122de565b0195945050505050565b60008251612bd28184602087016122de565b9190910192915050565b601f821115612c2257600081815260208120601f850160051c81016020861015612c035750805b601f850160051c820191505b8181101561133457828155600101612c0f565b505050565b81516001600160401b03811115612c4057612c40612341565b612c5481612c4e8454612b43565b84612bdc565b602080601f831160018114612c895760008415612c715750858301515b600019600386901b1c1916600185901b178555611334565b600085815260208120601f198616915b82811015612cb857888601518255948401946001909101908401612c99565b5085821015612cd65787850151600019600388901b60f8161c191681555b5050505050600190811b01905550565b828152604060208201526000612cff6040830184612302565b949350505050565b60208082526021908201527f455243313135353a206d696e7420746f20746865207a65726f206164647265736040820152607360f81b606082015260800190565b60208082526034908201527f53657373696f6e20494420616c72656164792065786973742c20706c6561736560408201527320757365206120646966666572656e74206f6e6560601b606082015260800190565b808201808211156103bd576103bd612b14565b60208082526025908201527f455243313135353a207472616e7366657220746f20746865207a65726f206164604082015264647265737360d81b606082015260800190565b6020808252602a908201527f455243313135353a20696e73756666696369656e742062616c616e636520666f60408201526939103a3930b739b332b960b11b606082015260800190565b604081526000612e5160408301856127fc565b8281036020840152612e6381856127fc565b95945050505050565b80820281158282048414176103bd576103bd612b14565b600081612e9257612e92612b14565b506000190190565b634e487b7160e01b600052601260045260246000fd5b6001600160a01b03868116825285166020820152604081018490526060810183905260a060808201819052600090612eea90830184612302565b979650505050505050565b600060208284031215612f0757600080fd5b815161049881612292565b600060033d1115612f2b5760046000803e5060005160e01c5b90565b600060443d1015612f3c5790565b6040516003193d81016004833e81513d6001600160401b038160248401118184111715612f6b57505050505090565b8285019150815181811115612f835750505050505090565b843d8701016020828501011115612f9d5750505050505090565b612fac60208286010187612357565b509095945050505050565b60208082526028908201527f455243313135353a204552433131353552656365697665722072656a656374656040820152676420746f6b656e7360c01b606082015260800190565b6001600160a01b0386811682528516602082015260a06040820181905260009061302b908301866127fc565b828103606084015261303d81866127fc565b905082810360808401526130518185612302565b9897505050505050505056fea2646970667358221220edf3d0268b9faf238d9d281f980cc7cd53d206637663be42b27dac4e453f0f4f64736f6c63430008110033",
    "linkReferences": {}
  },
  "methodIdentifiers": {
    "_property(uint256)": "6a982298",
    "_validator()": "e785fe52",
    "balanceOf(address,uint256)": "00fdd58e",
    "balanceOfBatch(address[],uint256[])": "4e1273f4",
    "generateId(address,uint256)": "82f5f85e",
    "isApprovedForAll(address,address)": "e985e9c5",
    "mint(address,uint256,uint256,string,string,string,address)": "1a61224c",
    "mintBatch(address,uint256[],uint256[],string[],string[],string[],address[])": "353f54cc",
    "owner()": "8da5cb5b",
    "pause()": "8456cb59",
    "paused()": "5c975abb",
    "renounceOwnership()": "715018a6",
    "safeBatchTransferFrom(address,address,uint256[],uint256[],bytes)": "2eb2c2d6",
    "safeTransferFrom(address,address,uint256,uint256,bytes)": "f242432a",
    "setApprovalForAll(address,bool)": "a22cb465",
    "supportsInterface(bytes4)": "01ffc9a7",
    "transferOwnership(address)": "f2fde38b",
    "unpause()": "3f4ba83a",
    "updateConfiguration(string,uint256)": "dc5180e6",
    "updateOperatingAgreement(string,uint256)": "b36c9db5",
    "updateValidator(address,uint256)": "e6635f5d",
    "uri(uint256)": "0e89341c"
  },
  "id": 18
}