{
  "abi": [
    {
      "inputs": [
        {
          "internalType": "uint256",
          "name": "id",
          "type": "uint256"
        }
      ],
      "name": "uri",
      "outputs": [
        {
          "internalType": "string",
          "name": "",
          "type": "string"
        }
      ],
      "stateMutability": "view",
      "type": "function"
    }
  ],
  "bytecode": {
    "object": "0x60e0604052602d60808181529061076960a03960009061001f90826100d1565b5034801561002c57600080fd5b50610190565b634e487b7160e01b600052604160045260246000fd5b600181811c9082168061005c57607f821691505b60208210810361007c57634e487b7160e01b600052602260045260246000fd5b50919050565b601f8211156100cc57600081815260208120601f850160051c810160208610156100a95750805b601f850160051c820191505b818110156100c8578281556001016100b5565b5050505b505050565b81516001600160401b038111156100ea576100ea610032565b6100fe816100f88454610048565b84610082565b602080601f831160018114610133576000841561011b5750858301515b600019600386901b1c1916600185901b1785556100c8565b600085815260208120601f198616915b8281101561016257888601518255948401946001909101908401610143565b50858210156101805787850151600019600388901b60f8161c191681555b5050505050600190811b01905550565b6105ca8061019f6000396000f3fe608060405234801561001057600080fd5b506004361061002b5760003560e01c80630e89341c14610030575b600080fd5b61004361003e3660046103c5565b610059565b6040516100509190610402565b60405180910390f35b6060600061006630610097565b61006f846100b3565b60405160200161008193929190610451565b6040516020818303038152906040529050919050565b60606100ad6001600160a01b0383166014610146565b92915050565b606060006100c0836102ed565b600101905060008167ffffffffffffffff8111156100e0576100e0610511565b6040519080825280601f01601f19166020018201604052801561010a576020820181803683370190505b5090508181016020015b600019016f181899199a1a9b1b9c1cb0b131b232b360811b600a86061a8153600a850494508461011457509392505050565b6060600061015583600261053d565b610160906002610554565b67ffffffffffffffff81111561017857610178610511565b6040519080825280601f01601f1916602001820160405280156101a2576020820181803683370190505b509050600360fc1b816000815181106101bd576101bd610567565b60200101906001600160f81b031916908160001a905350600f60fb1b816001815181106101ec576101ec610567565b60200101906001600160f81b031916908160001a905350600061021084600261053d565b61021b906001610554565b90505b6001811115610293576f181899199a1a9b1b9c1cb0b131b232b360811b85600f166010811061024f5761024f610567565b1a60f81b82828151811061026557610265610567565b60200101906001600160f81b031916908160001a90535060049490941c9361028c8161057d565b905061021e565b5083156102e65760405162461bcd60e51b815260206004820181905260248201527f537472696e67733a20686578206c656e67746820696e73756666696369656e74604482015260640160405180910390fd5b9392505050565b60008072184f03e93ff9f4daa797ed6e38ed64bf6a1f0160401b831061032c5772184f03e93ff9f4daa797ed6e38ed64bf6a1f0160401b830492506040015b6d04ee2d6d415b85acef81000000008310610358576d04ee2d6d415b85acef8100000000830492506020015b662386f26fc10000831061037657662386f26fc10000830492506010015b6305f5e100831061038e576305f5e100830492506008015b61271083106103a257612710830492506004015b606483106103b4576064830492506002015b600a83106100ad5760010192915050565b6000602082840312156103d757600080fd5b5035919050565b60005b838110156103f95781810151838201526020016103e1565b50506000910152565b60208152600082518060208401526104218160408501602087016103de565b601f01601f19169190910160400192915050565b600081516104478185602086016103de565b9290920192915050565b600080855481600182811c91508083168061046d57607f831692505b6020808410820361048c57634e487b7160e01b86526022600452602486fd5b8180156104a057600181146104b5576104e2565b60ff19861689528415158502890196506104e2565b60008c81526020902060005b868110156104da5781548b8201529085019083016104c1565b505084890196505b5050506104ef8489610435565b602f60f81b8152935061050481850188610435565b9998505050505050505050565b634e487b7160e01b600052604160045260246000fd5b634e487b7160e01b600052601160045260246000fd5b80820281158282048414176100ad576100ad610527565b808201808211156100ad576100ad610527565b634e487b7160e01b600052603260045260246000fd5b60008161058c5761058c610527565b50600019019056fea26469706673582212201c73eb531093702113abfd2bcc280902678b1b678be2de0885dcd77f356b05ed64736f6c6343000811003368747470733a2f2f6d657461646174612d73746167696e672e666162726963612e6c616e642f676f65726c692f",
    "linkReferences": {}
  },
  "methodIdentifiers": {
    "uri(uint256)": "0e89341c"
  },
  "id": 23
}