{
  "abi": [
    {
      "inputs": [
        {
          "internalType": "string",
          "name": "baseMetadataUri",
          "type": "string"
        }
      ],
      "stateMutability": "nonpayable",
      "type": "constructor"
    },
    {
      "anonymous": false,
      "inputs": [
        {
          "indexed": true,
          "internalType": "address",
          "name": "account",
          "type": "address"
        },
        {
          "indexed": true,
          "internalType": "address",
          "name": "operator",
          "type": "address"
        },
        {
          "indexed": false,
          "internalType": "bool",
          "name": "approved",
          "type": "bool"
        }
      ],
      "name": "ApprovalForAll",
      "type": "event"
    },
    {
      "anonymous": false,
      "inputs": [
        {
          "indexed": true,
          "internalType": "address",
          "name": "previousOwner",
          "type": "address"
        },
        {
          "indexed": true,
          "internalType": "address",
          "name": "newOwner",
          "type": "address"
        }
      ],
      "name": "OwnershipTransferred",
      "type": "event"
    },
    {
      "anonymous": false,
      "inputs": [
        {
          "indexed": false,
          "internalType": "address",
          "name": "account",
          "type": "address"
        }
      ],
      "name": "Paused",
      "type": "event"
    },
    {
      "anonymous": false,
      "inputs": [
        {
          "indexed": true,
          "internalType": "address",
          "name": "operator",
          "type": "address"
        },
        {
          "indexed": true,
          "internalType": "address",
          "name": "from",
          "type": "address"
        },
        {
          "indexed": true,
          "internalType": "address",
          "name": "to",
          "type": "address"
        },
        {
          "indexed": false,
          "internalType": "uint256[]",
          "name": "ids",
          "type": "uint256[]"
        },
        {
          "indexed": false,
          "internalType": "uint256[]",
          "name": "values",
          "type": "uint256[]"
        }
      ],
      "name": "TransferBatch",
      "type": "event"
    },
    {
      "anonymous": false,
      "inputs": [
        {
          "indexed": true,
          "internalType": "address",
          "name": "operator",
          "type": "address"
        },
        {
          "indexed": true,
          "internalType": "address",
          "name": "from",
          "type": "address"
        },
        {
          "indexed": true,
          "internalType": "address",
          "name": "to",
          "type": "address"
        },
        {
          "indexed": false,
          "internalType": "uint256",
          "name": "id",
          "type": "uint256"
        },
        {
          "indexed": false,
          "internalType": "uint256",
          "name": "value",
          "type": "uint256"
        }
      ],
      "name": "TransferSingle",
      "type": "event"
    },
    {
      "anonymous": false,
      "inputs": [
        {
          "indexed": false,
          "internalType": "string",
          "name": "value",
          "type": "string"
        },
        {
          "indexed": true,
          "internalType": "uint256",
          "name": "id",
          "type": "uint256"
        }
      ],
      "name": "URI",
      "type": "event"
    },
    {
      "anonymous": false,
      "inputs": [
        {
          "indexed": false,
          "internalType": "address",
          "name": "account",
          "type": "address"
        }
      ],
      "name": "Unpaused",
      "type": "event"
    },
    {
      "anonymous": false,
      "inputs": [
        {
          "indexed": false,
          "internalType": "uint256",
          "name": "",
          "type": "uint256"
        },
        {
          "indexed": false,
          "internalType": "string",
          "name": "newData",
          "type": "string"
        }
      ],
      "name": "UpdateConfiguration",
      "type": "event"
    },
    {
      "anonymous": false,
      "inputs": [
        {
          "indexed": false,
          "internalType": "uint256",
          "name": "",
          "type": "uint256"
        },
        {
          "indexed": false,
          "internalType": "string",
          "name": "newData",
          "type": "string"
        }
      ],
      "name": "UpdateOperatingAgreement",
      "type": "event"
    },
    {
      "anonymous": false,
      "inputs": [
        {
          "indexed": false,
          "internalType": "uint256",
          "name": "tokenId",
          "type": "uint256"
        },
        {
          "indexed": false,
          "internalType": "string",
          "name": "dataType",
          "type": "string"
        },
        {
          "indexed": false,
          "internalType": "address",
          "name": "validator",
          "type": "address"
        }
      ],
      "name": "UpdateValidator",
      "type": "event"
    },
    {
      "inputs": [
        {
          "internalType": "uint256",
          "name": "",
          "type": "uint256"
        }
      ],
      "name": "_property",
      "outputs": [
        {
          "internalType": "uint256",
          "name": "supply",
          "type": "uint256"
        },
        {
          "internalType": "string",
          "name": "operatingAgreement",
          "type": "string"
        },
        {
          "internalType": "string",
          "name": "definition",
          "type": "string"
        },
        {
          "internalType": "string",
          "name": "configuration",
          "type": "string"
        },
        {
          "internalType": "address",
          "name": "validator",
          "type": "address"
        }
      ],
      "stateMutability": "view",
      "type": "function"
    },
    {
      "inputs": [
        {
          "internalType": "address",
          "name": "account",
          "type": "address"
        },
        {
          "internalType": "uint256",
          "name": "id",
          "type": "uint256"
        }
      ],
      "name": "balanceOf",
      "outputs": [
        {
          "internalType": "uint256",
          "name": "",
          "type": "uint256"
        }
      ],
      "stateMutability": "view",
      "type": "function"
    },
    {
      "inputs": [
        {
          "internalType": "address[]",
          "name": "accounts",
          "type": "address[]"
        },
        {
          "internalType": "uint256[]",
          "name": "ids",
          "type": "uint256[]"
        }
      ],
      "name": "balanceOfBatch",
      "outputs": [
        {
          "internalType": "uint256[]",
          "name": "",
          "type": "uint256[]"
        }
      ],
      "stateMutability": "view",
      "type": "function"
    },
    {
      "inputs": [
        {
          "internalType": "address",
          "name": "operator",
          "type": "address"
        },
        {
          "internalType": "uint256",
          "name": "sessionId",
          "type": "uint256"
        }
      ],
      "name": "generateId",
      "outputs": [
        {
          "internalType": "uint256",
          "name": "",
          "type": "uint256"
        }
      ],
      "stateMutability": "view",
      "type": "function"
    },
    {
      "inputs": [
        {
          "internalType": "address",
          "name": "account",
          "type": "address"
        },
        {
          "internalType": "address",
          "name": "operator",
          "type": "address"
        }
      ],
      "name": "isApprovedForAll",
      "outputs": [
        {
          "internalType": "bool",
          "name": "",
          "type": "bool"
        }
      ],
      "stateMutability": "view",
      "type": "function"
    },
    {
      "inputs": [
        {
          "internalType": "address",
          "name": "to",
          "type": "address"
        },
        {
          "internalType": "uint256",
          "name": "sessionId",
          "type": "uint256"
        },
        {
          "internalType": "uint256",
          "name": "supply",
          "type": "uint256"
        },
        {
          "internalType": "string",
          "name": "definition",
          "type": "string"
        },
        {
          "internalType": "string",
          "name": "operatingAgreement",
          "type": "string"
        },
        {
          "internalType": "string",
          "name": "configuration",
          "type": "string"
        },
        {
          "internalType": "address",
          "name": "validator",
          "type": "address"
        }
      ],
      "name": "mint",
      "outputs": [
        {
          "internalType": "uint256",
          "name": "",
          "type": "uint256"
        }
      ],
      "stateMutability": "nonpayable",
      "type": "function"
    },
    {
      "inputs": [
        {
          "internalType": "address",
          "name": "to",
          "type": "address"
        },
        {
          "internalType": "uint256[]",
          "name": "sessionIds",
          "type": "uint256[]"
        },
        {
          "internalType": "uint256[]",
          "name": "supplies",
          "type": "uint256[]"
        },
        {
          "internalType": "string[]",
          "name": "definitions",
          "type": "string[]"
        },
        {
          "internalType": "string[]",
          "name": "operatingAgreements",
          "type": "string[]"
        },
        {
          "internalType": "string[]",
          "name": "configurations",
          "type": "string[]"
        },
        {
          "internalType": "address[]",
          "name": "validators",
          "type": "address[]"
        }
      ],
      "name": "mintBatch",
      "outputs": [
        {
          "internalType": "uint256[]",
          "name": "ids",
          "type": "uint256[]"
        }
      ],
      "stateMutability": "nonpayable",
      "type": "function"
    },
    {
      "inputs": [],
      "name": "owner",
      "outputs": [
        {
          "internalType": "address",
          "name": "",
          "type": "address"
        }
      ],
      "stateMutability": "view",
      "type": "function"
    },
    {
      "inputs": [],
      "name": "pause",
      "outputs": [],
      "stateMutability": "nonpayable",
      "type": "function"
    },
    {
      "inputs": [],
      "name": "paused",
      "outputs": [
        {
          "internalType": "bool",
          "name": "",
          "type": "bool"
        }
      ],
      "stateMutability": "view",
      "type": "function"
    },
    {
      "inputs": [],
      "name": "renounceOwnership",
      "outputs": [],
      "stateMutability": "nonpayable",
      "type": "function"
    },
    {
      "inputs": [
        {
          "internalType": "address",
          "name": "from",
          "type": "address"
        },
        {
          "internalType": "address",
          "name": "to",
          "type": "address"
        },
        {
          "internalType": "uint256[]",
          "name": "ids",
          "type": "uint256[]"
        },
        {
          "internalType": "uint256[]",
          "name": "amounts",
          "type": "uint256[]"
        },
        {
          "internalType": "bytes",
          "name": "data",
          "type": "bytes"
        }
      ],
      "name": "safeBatchTransferFrom",
      "outputs": [],
      "stateMutability": "nonpayable",
      "type": "function"
    },
    {
      "inputs": [
        {
          "internalType": "address",
          "name": "from",
          "type": "address"
        },
        {
          "internalType": "address",
          "name": "to",
          "type": "address"
        },
        {
          "internalType": "uint256",
          "name": "id",
          "type": "uint256"
        },
        {
          "internalType": "uint256",
          "name": "amount",
          "type": "uint256"
        },
        {
          "internalType": "bytes",
          "name": "data",
          "type": "bytes"
        }
      ],
      "name": "safeTransferFrom",
      "outputs": [],
      "stateMutability": "nonpayable",
      "type": "function"
    },
    {
      "inputs": [
        {
          "internalType": "address",
          "name": "operator",
          "type": "address"
        },
        {
          "internalType": "bool",
          "name": "approved",
          "type": "bool"
        }
      ],
      "name": "setApprovalForAll",
      "outputs": [],
      "stateMutability": "nonpayable",
      "type": "function"
    },
    {
      "inputs": [
        {
          "internalType": "bytes4",
          "name": "interfaceId",
          "type": "bytes4"
        }
      ],
      "name": "supportsInterface",
      "outputs": [
        {
          "internalType": "bool",
          "name": "",
          "type": "bool"
        }
      ],
      "stateMutability": "view",
      "type": "function"
    },
    {
      "inputs": [
        {
          "internalType": "address",
          "name": "newOwner",
          "type": "address"
        }
      ],
      "name": "transferOwnership",
      "outputs": [],
      "stateMutability": "nonpayable",
      "type": "function"
    },
    {
      "inputs": [],
      "name": "unpause",
      "outputs": [],
      "stateMutability": "nonpayable",
      "type": "function"
    },
    {
      "inputs": [
        {
          "internalType": "string",
          "name": "configuration",
          "type": "string"
        },
        {
          "internalType": "uint256",
          "name": "id",
          "type": "uint256"
        }
      ],
      "name": "updateConfiguration",
      "outputs": [
        {
          "internalType": "bool",
          "name": "",
          "type": "bool"
        }
      ],
      "stateMutability": "nonpayable",
      "type": "function"
    },
    {
      "inputs": [
        {
          "internalType": "string",
          "name": "operatingAgreement",
          "type": "string"
        },
        {
          "internalType": "uint256",
          "name": "id",
          "type": "uint256"
        }
      ],
      "name": "updateOperatingAgreement",
      "outputs": [
        {
          "internalType": "bool",
          "name": "",
          "type": "bool"
        }
      ],
      "stateMutability": "nonpayable",
      "type": "function"
    },
    {
      "inputs": [
        {
          "internalType": "address",
          "name": "validator",
          "type": "address"
        },
        {
          "internalType": "uint256",
          "name": "id",
          "type": "uint256"
        }
      ],
      "name": "updateValidator",
      "outputs": [
        {
          "internalType": "bool",
          "name": "",
          "type": "bool"
        }
      ],
      "stateMutability": "nonpayable",
      "type": "function"
    },
    {
      "inputs": [
        {
          "internalType": "uint256",
          "name": "id",
          "type": "uint256"
        }
      ],
      "name": "uri",
      "outputs": [
        {
          "internalType": "string",
          "name": "",
          "type": "string"
        }
      ],
      "stateMutability": "view",
      "type": "function"
    }
  ],
  "bytecode": {
    "object": "0x60806040523480156200001157600080fd5b506040516200334c3803806200334c8339810160408190526200003491620000c8565b6200003f3362000062565b6000805460ff60a01b1916905560046200005a82826200022c565b5050620002f8565b600080546001600160a01b038381166001600160a01b0319831681178455604051919092169283917f8be0079c531659141344cd1fd0a4f28419497f9722a3daafe3b4186f6b6457e09190a35050565b634e487b7160e01b600052604160045260246000fd5b60006020808385031215620000dc57600080fd5b82516001600160401b0380821115620000f457600080fd5b818501915085601f8301126200010957600080fd5b8151818111156200011e576200011e620000b2565b604051601f8201601f19908116603f01168101908382118183101715620001495762000149620000b2565b8160405282815288868487010111156200016257600080fd5b600093505b8284101562000186578484018601518185018701529285019262000167565b600086848301015280965050505050505092915050565b600181811c90821680620001b257607f821691505b602082108103620001d357634e487b7160e01b600052602260045260246000fd5b50919050565b601f8211156200022757600081815260208120601f850160051c81016020861015620002025750805b601f850160051c820191505b8181101562000223578281556001016200020e565b5050505b505050565b81516001600160401b03811115620002485762000248620000b2565b62000260816200025984546200019d565b84620001d9565b602080601f8311600181146200029857600084156200027f5750858301515b600019600386901b1c1916600185901b17855562000223565b600085815260208120601f198616915b82811015620002c957888601518255948401946001909101908401620002a8565b5085821015620002e85787850151600019600388901b60f8161c191681555b5050505050600190811b01905550565b61304480620003086000396000f3fe608060405234801561001057600080fd5b50600436106101365760003560e01c8063715018a6116100b8578063b36c9db51161007c578063b36c9db51461028e578063dc5180e6146102a1578063e6635f5d146102b4578063e985e9c5146102c7578063f242432a146102da578063f2fde38b146102ed57600080fd5b8063715018a61461023d57806382f5f85e146102455780638456cb59146102585780638da5cb5b14610260578063a22cb4651461027b57600080fd5b8063353f54cc116100ff578063353f54cc146101cc5780633f4ba83a146101ec5780634e1273f4146101f45780635c975abb146102075780636a9822981461021957600080fd5b8062fdd58e1461013b57806301ffc9a7146101615780630e89341c146101845780631a61224c146101a45780632eb2c2d6146101b7575b600080fd5b61014e610149366004612200565b610300565b6040519081526020015b60405180910390f35b61017461016f366004612240565b61039b565b6040519015158152602001610158565b61019761019236600461225d565b6103eb565b60405161015891906122c6565b61014e6101b236600461238e565b610429565b6101ca6101c53660046124de565b61048e565b005b6101df6101da36600461267e565b6104e2565b60405161015891906127bf565b6101ca6106b2565b6101df6102023660046127d2565b6106cc565b600054600160a01b900460ff16610174565b61022c61022736600461225d565b6107f5565b604051610158959493929190612835565b6101ca6109c5565b61014e610253366004612200565b6109d7565b6101ca610a6f565b6000546040516001600160a01b039091168152602001610158565b6101ca61028936600461288f565b610a87565b61017461029c3660046128cb565b610a9e565b6101746102af3660046128cb565b610b57565b6101746102c2366004612200565b610bff565b6101746102d536600461290f565b610ce7565b6101ca6102e8366004612942565b610d20565b6101ca6102fb3660046129a6565b610d6d565b60006001600160a01b0383166103705760405162461bcd60e51b815260206004820152602a60248201527f455243313135353a2061646472657373207a65726f206973206e6f742061207660448201526930b634b21037bbb732b960b11b60648201526084015b60405180910390fd5b5060008181526001602090815260408083206001600160a01b03861684529091529020545b92915050565b60006001600160e01b03198216636cdb3d1360e11b14806103cc57506001600160e01b031982166303a24d0760e21b145b8061039557506301ffc9a760e01b6001600160e01b0319831614610395565b606060046103f830610de6565b61040184610dfc565b604051602001610413939291906129fb565b6040516020818303038152906040529050919050565b6000610433610e8e565b61043b6121ac565b86815260208082018690526040808301889052606083018690526001600160a01b038516608084015280519182019052600080825290610480908b908b908590610edb565b9a9950505050505050505050565b610496610e8e565b6001600160a01b0385163314806104b257506104b28533610ce7565b6104ce5760405162461bcd60e51b815260040161036790612aa6565b6104db858585858561113d565b5050505050565b60606104ec610e8e565b86516000816001600160401b03811115610508576105086122d9565b60405190808252806020026020018201604052801561054157816020015b61052e6121ac565b8152602001906001900390816105265790505b50905060005b828110156106965788818151811061056157610561612af4565b602002602001015182828151811061057b5761057b612af4565b6020026020010151600001818152505086818151811061059d5761059d612af4565b60200260200101518282815181106105b7576105b7612af4565b6020026020010151602001819052508781815181106105d8576105d8612af4565b60200260200101518282815181106105f2576105f2612af4565b60200260200101516040018190525085818151811061061357610613612af4565b602002602001015182828151811061062d5761062d612af4565b60200260200101516060018190525084818151811061064e5761064e612af4565b602002602001015182828151811061066857610668612af4565b60209081029190910101516001600160a01b039091166080909101528061068e81612b20565b915050610547565b506104808a8a8360405180602001604052806000815250611341565b6106ba6117c4565b6106c261181e565b6106ca61186e565b565b606081518351146107315760405162461bcd60e51b815260206004820152602960248201527f455243313135353a206163636f756e747320616e6420696473206c656e677468604482015268040dad2e6dac2e8c6d60bb1b6064820152608401610367565b600083516001600160401b0381111561074c5761074c6122d9565b604051908082528060200260200182016040528015610775578160200160208202803683370190505b50905060005b84518110156107ed576107c085828151811061079957610799612af4565b60200260200101518583815181106107b3576107b3612af4565b6020026020010151610300565b8282815181106107d2576107d2612af4565b60209081029190910101526107e681612b20565b905061077b565b509392505050565b60036020526000908152604090208054600182018054919291610817906129c1565b80601f0160208091040260200160405190810160405280929190818152602001828054610843906129c1565b80156108905780601f1061086557610100808354040283529160200191610890565b820191906000526020600020905b81548152906001019060200180831161087357829003601f168201915b5050505050908060020180546108a5906129c1565b80601f01602080910402602001604051908101604052809291908181526020018280546108d1906129c1565b801561091e5780601f106108f35761010080835404028352916020019161091e565b820191906000526020600020905b81548152906001019060200180831161090157829003601f168201915b505050505090806003018054610933906129c1565b80601f016020809104026020016040519081016040528092919081815260200182805461095f906129c1565b80156109ac5780601f10610981576101008083540402835291602001916109ac565b820191906000526020600020905b81548152906001019060200180831161098f57829003601f168201915b505050600490930154919250506001600160a01b031685565b6109cd6117c4565b6106ca60006118c3565b60006109e1610e8e565b60006109f7846001600160a01b03166014611913565b90506000610a0446610dfc565b82610a0e86610dfc565b604051602001610a2093929190612b39565b6040516020818303038152906040529050600081604051602001610a449190612b7c565b60408051808303601f1901815291905280516020909101206001600160401b03169695505050505050565b610a776117c4565b610a7f610e8e565b6106ca611ab5565b610a8f610e8e565b610a9a338383611af8565b5050565b6000610aa8610e8e565b610ab5335b836046611be0565b610af95760405162461bcd60e51b81526020600482015260156024820152744f6e6c79203e203730252063616e2075706461746560581b6044820152606401610367565b6000828152600360205260409020600101610b148482612be3565b507f6b491e3cbe1a3d27a215d960a465834cf22a7e3e87ffe8be5724ab67f72583fb8284604051610b46929190612ca2565b60405180910390a150600192915050565b6000610b61610e8e565b610b6d33836032611be0565b610bb15760405162461bcd60e51b81526020600482015260156024820152744f6e6c79203e203530252063616e2075706461746560581b6044820152606401610367565b600082815260036020819052604090912001610bcd8482612be3565b507fb56c2e2e610c525cd60429993be20aab298f5bc84e28ad1a0b8eb2c2ca8559208284604051610b46929190612ca2565b6000610c09610e8e565b610c1233610aad565b610c565760405162461bcd60e51b81526020600482015260156024820152744f6e6c79203e203730252063616e2075706461746560581b6044820152606401610367565b6000828152600360205260409081902060040180546001600160a01b0386166001600160a01b0319909116179055517f56137a68f73d3785a7a236d27a378cb92851e1b1d68317de555fc4fde9c17add90610b469084908690918252606060208301819052600990830152683b30b634b230ba37b960b91b60808301526001600160a01b0316604082015260a00190565b6000610cf1610e8e565b506001600160a01b03918216600090815260026020908152604080832093909416825291909152205460ff1690565b610d28610e8e565b6001600160a01b038516331480610d445750610d448533610ce7565b610d605760405162461bcd60e51b815260040161036790612aa6565b6104db8585858585611c51565b610d756117c4565b6001600160a01b038116610dda5760405162461bcd60e51b815260206004820152602660248201527f4f776e61626c653a206e6577206f776e657220697320746865207a65726f206160448201526564647265737360d01b6064820152608401610367565b610de3816118c3565b50565b60606103956001600160a01b0383166014611913565b60606000610e0983611da3565b60010190506000816001600160401b03811115610e2857610e286122d9565b6040519080825280601f01601f191660200182016040528015610e52576020820181803683370190505b5090508181016020015b600019016f181899199a1a9b1b9c1cb0b131b232b360811b600a86061a8153600a8504945084610e5c57509392505050565b600054600160a01b900460ff16156106ca5760405162461bcd60e51b815260206004820152601060248201526f14185d5cd8589b194e881c185d5cd95960821b6044820152606401610367565b6000610ee5610e8e565b6001600160a01b038516610f0b5760405162461bcd60e51b815260040161036790612cd9565b600083604001515111610f595760405162461bcd60e51b81526020600482015260166024820152751119599a5b9a5d1a5bdb881a5cc81c995c5d5a5c995960521b6044820152606401610367565b60008411610fa95760405162461bcd60e51b815260206004820152601b60248201527f56616c69642073657373696f6e496420697320726571756972656400000000006044820152606401610367565b8251610fed5760405162461bcd60e51b81526020600482015260136024820152724d696e696d756d20737570706c79206973203160681b6044820152606401610367565b825133906000610ffd83886109d7565b6000818152600360205260409020549091501561102c5760405162461bcd60e51b815260040161036790612d1a565b60008181526001602090815260408083206001600160a01b038c1684529091528120805484929061105e908490612d6e565b909155505060008181526003602090815260409091208751815590870151879190600182019061108e9082612be3565b50604082015160028201906110a39082612be3565b50606082015160038201906110b89082612be3565b5060809190910151600490910180546001600160a01b0319166001600160a01b0392831617905560408051838152602081018590528a831692600092908716917fc3d58168c5ae7397731d063d5bbf3d657854427343f4c083240f7aacaa2d0f62910160405180910390a46111328360008a84868a611e7b565b979650505050505050565b611145610e8e565b81518351146111a75760405162461bcd60e51b815260206004820152602860248201527f455243313135353a2069647320616e6420616d6f756e7473206c656e677468206044820152670dad2e6dac2e8c6d60c31b6064820152608401610367565b6001600160a01b0384166111cd5760405162461bcd60e51b815260040161036790612d81565b336111dc818787878787611fe7565b60005b84518110156112c55760008582815181106111fc576111fc612af4565b60200260200101519050600085838151811061121a5761121a612af4565b60209081029190910181015160008481526001835260408082206001600160a01b038e16835290935291909120549091508181101561126b5760405162461bcd60e51b815260040161036790612dc6565b60008381526001602090815260408083206001600160a01b038e8116855292528083208585039055908b168252812080548492906112aa908490612d6e565b92505081905550505050806112be90612b20565b90506111df565b50846001600160a01b0316866001600160a01b0316826001600160a01b03167f4a39dc06d4c0dbc64b70af90fd698a233a518aa5d07e595d983b8c0526c8f7fb8787604051611315929190612e10565b60405180910390a461132b818787878787611fe7565b611339818787878787611fef565b505050505050565b606061134b610e8e565b6001600160a01b0385166113715760405162461bcd60e51b815260040161036790612cd9565b82518451146113d45760405162461bcd60e51b815260206004820152602960248201527f73657373696f6e49647320616e642070726f70657274696573206c656e677468604482015268040dad2e6dac2e8c6d60bb1b6064820152608401610367565b8351336000826001600160401b038111156113f1576113f16122d9565b60405190808252806020026020018201604052801561141a578160200160208202803683370190505b5090506000836001600160401b03811115611437576114376122d9565b604051908082528060200260200182016040528015611460578160200160208202803683370190505b50905060005b8481101561175057600088828151811061148257611482612af4565b60200260200101516040015151116114d55760405162461bcd60e51b81526020600482015260166024820152751119599a5b9a5d1a5bdb881a5cc81c995c5d5a5c995960521b6044820152606401610367565b60008982815181106114e9576114e9612af4565b60200260200101511161153e5760405162461bcd60e51b815260206004820152601b60248201527f56616c69642073657373696f6e496420697320726571756972656400000000006044820152606401610367565b600088828151811061155257611552612af4565b602002602001015160000151116115a15760405162461bcd60e51b81526020600482015260136024820152724d696e696d756d20737570706c79206973203160681b6044820152606401610367565b60006115c6858b84815181106115b9576115b9612af4565b60200260200101516109d7565b600081815260036020526040902054909150156115f55760405162461bcd60e51b815260040161036790612d1a565b600089838151811061160957611609612af4565b60200260200101516000015190508185848151811061162a5761162a612af4565b6020026020010181815250508084848151811061164957611649612af4565b602002602001018181525050806001600084815260200190815260200160002060008e6001600160a01b03166001600160a01b03168152602001908152602001600020600082825461169b9190612d6e565b925050819055508983815181106116b4576116b4612af4565b60209081029190910181015160008481526003835260409020815181559181015190919060018201906116e79082612be3565b50604082015160028201906116fc9082612be3565b50606082015160038201906117119082612be3565b5060809190910151600490910180546001600160a01b0319166001600160a01b039092169190911790555081905061174881612b20565b915050611466565b50886001600160a01b031660006001600160a01b0316846001600160a01b03167f4a39dc06d4c0dbc64b70af90fd698a233a518aa5d07e595d983b8c0526c8f7fb85856040516117a1929190612e10565b60405180910390a46117b88360008b85858b611fef565b50979650505050505050565b6000546001600160a01b031633146106ca5760405162461bcd60e51b815260206004820181905260248201527f4f776e61626c653a2063616c6c6572206973206e6f7420746865206f776e65726044820152606401610367565b600054600160a01b900460ff166106ca5760405162461bcd60e51b815260206004820152601460248201527314185d5cd8589b194e881b9bdd081c185d5cd95960621b6044820152606401610367565b61187661181e565b6000805460ff60a01b191690557f5db9ee0a495bf2e6ff9c91a7834c1ba4fdd244a5e8aa4e537bd38aeae4b073aa335b6040516001600160a01b03909116815260200160405180910390a1565b600080546001600160a01b038381166001600160a01b0319831681178455604051919092169283917f8be0079c531659141344cd1fd0a4f28419497f9722a3daafe3b4186f6b6457e09190a35050565b60606000611922836002612e3e565b61192d906002612d6e565b6001600160401b03811115611944576119446122d9565b6040519080825280601f01601f19166020018201604052801561196e576020820181803683370190505b509050600360fc1b8160008151811061198957611989612af4565b60200101906001600160f81b031916908160001a905350600f60fb1b816001815181106119b8576119b8612af4565b60200101906001600160f81b031916908160001a90535060006119dc846002612e3e565b6119e7906001612d6e565b90505b6001811115611a5f576f181899199a1a9b1b9c1cb0b131b232b360811b85600f1660108110611a1b57611a1b612af4565b1a60f81b828281518110611a3157611a31612af4565b60200101906001600160f81b031916908160001a90535060049490941c93611a5881612e55565b90506119ea565b508315611aae5760405162461bcd60e51b815260206004820181905260248201527f537472696e67733a20686578206c656e67746820696e73756666696369656e746044820152606401610367565b9392505050565b611abd610e8e565b6000805460ff60a01b1916600160a01b1790557f62e78cea01bee320cd4e420270b5ea74000d11b0c9f74754ebdbfc544b05a2586118a63390565b611b00610e8e565b816001600160a01b0316836001600160a01b031603611b735760405162461bcd60e51b815260206004820152602960248201527f455243313135353a2073657474696e6720617070726f76616c20737461747573604482015268103337b91039b2b63360b91b6064820152608401610367565b6001600160a01b03838116600081815260026020908152604080832094871680845294825291829020805460ff191686151590811790915591519182527f17307eab39ab6107e8899845ad3d59bd9653f200f220920489ca2b5937696c31910160405180910390a3505050565b60008281526001602090815260408083206001600160a01b0387168452909152812054808203611c14576000915050611aae565b60008481526003602052604081205490819003611c3657600092505050611aae565b6000611c44836064846120b2565b9094109695505050505050565b611c59610e8e565b6001600160a01b038416611c7f5760405162461bcd60e51b815260040161036790612d81565b336000611c8b85612161565b90506000611c9885612161565b9050611ca8838989858589611fe7565b60008681526001602090815260408083206001600160a01b038c16845290915290205485811015611ceb5760405162461bcd60e51b815260040161036790612dc6565b60008781526001602090815260408083206001600160a01b038d8116855292528083208985039055908a16825281208054889290611d2a908490612d6e565b909155505060408051888152602081018890526001600160a01b03808b16928c821692918816917fc3d58168c5ae7397731d063d5bbf3d657854427343f4c083240f7aacaa2d0f62910160405180910390a4611d8a848a8a86868a611fe7565b611d98848a8a8a8a8a611e7b565b505050505050505050565b60008072184f03e93ff9f4daa797ed6e38ed64bf6a1f0160401b8310611de25772184f03e93ff9f4daa797ed6e38ed64bf6a1f0160401b830492506040015b6d04ee2d6d415b85acef81000000008310611e0e576d04ee2d6d415b85acef8100000000830492506020015b662386f26fc100008310611e2c57662386f26fc10000830492506010015b6305f5e1008310611e44576305f5e100830492506008015b6127108310611e5857612710830492506004015b60648310611e6a576064830492506002015b600a83106103955760010192915050565b611e83610e8e565b6001600160a01b0384163b156113395760405163f23a6e6160e01b81526001600160a01b0385169063f23a6e6190611ec79089908990889088908890600401612e6c565b6020604051808303816000875af1925050508015611f02575060408051601f3d908101601f19168201909252611eff91810190612ea6565b60015b611fae57611f0e612ec3565b806308c379a003611f475750611f22612edf565b80611f2d5750611f49565b8060405162461bcd60e51b815260040161036791906122c6565b505b60405162461bcd60e51b815260206004820152603460248201527f455243313135353a207472616e7366657220746f206e6f6e2d455243313135356044820152732932b1b2b4bb32b91034b6b83632b6b2b73a32b960611b6064820152608401610367565b6001600160e01b0319811663f23a6e6160e01b14611fde5760405162461bcd60e51b815260040161036790612f68565b50505050505050565b611339610e8e565b611ff7610e8e565b6001600160a01b0384163b156113395760405163bc197c8160e01b81526001600160a01b0385169063bc197c819061203b9089908990889088908890600401612fb0565b6020604051808303816000875af1925050508015612076575060408051601f3d908101601f1916820190925261207391810190612ea6565b60015b61208257611f0e612ec3565b6001600160e01b0319811663bc197c8160e01b14611fde5760405162461bcd60e51b815260040161036790612f68565b60008080600019858709858702925082811083820303915050806000036120ec578382816120e2576120e2612cc3565b0492505050611aae565b8084116120f857600080fd5b60008486880960026001871981018816978890046003810283188082028403028082028403028082028403028082028403028082028403029081029092039091026000889003889004909101858311909403939093029303949094049190911702949350505050565b6040805160018082528183019092526060916000919060208083019080368337019050509050828160008151811061219b5761219b612af4565b602090810291909101015292915050565b6040518060a001604052806000815260200160608152602001606081526020016060815260200160006001600160a01b031681525090565b80356001600160a01b03811681146121fb57600080fd5b919050565b6000806040838503121561221357600080fd5b61221c836121e4565b946020939093013593505050565b6001600160e01b031981168114610de357600080fd5b60006020828403121561225257600080fd5b8135611aae8161222a565b60006020828403121561226f57600080fd5b5035919050565b60005b83811015612291578181015183820152602001612279565b50506000910152565b600081518084526122b2816020860160208601612276565b601f01601f19169290920160200192915050565b602081526000611aae602083018461229a565b634e487b7160e01b600052604160045260246000fd5b601f8201601f191681016001600160401b0381118282101715612314576123146122d9565b6040525050565b600082601f83011261232c57600080fd5b81356001600160401b03811115612345576123456122d9565b60405161235c601f8301601f1916602001826122ef565b81815284602083860101111561237157600080fd5b816020850160208301376000918101602001919091529392505050565b600080600080600080600060e0888a0312156123a957600080fd5b6123b2886121e4565b9650602088013595506040880135945060608801356001600160401b03808211156123dc57600080fd5b6123e88b838c0161231b565b955060808a01359150808211156123fe57600080fd5b61240a8b838c0161231b565b945060a08a013591508082111561242057600080fd5b5061242d8a828b0161231b565b92505061243c60c089016121e4565b905092959891949750929550565b60006001600160401b03821115612463576124636122d9565b5060051b60200190565b600082601f83011261247e57600080fd5b8135602061248b8261244a565b60405161249882826122ef565b83815260059390931b85018201928281019150868411156124b857600080fd5b8286015b848110156124d357803583529183019183016124bc565b509695505050505050565b600080600080600060a086880312156124f657600080fd5b6124ff866121e4565b945061250d602087016121e4565b935060408601356001600160401b038082111561252957600080fd5b61253589838a0161246d565b9450606088013591508082111561254b57600080fd5b61255789838a0161246d565b9350608088013591508082111561256d57600080fd5b5061257a8882890161231b565b9150509295509295909350565b600082601f83011261259857600080fd5b813560206125a58261244a565b6040516125b282826122ef565b83815260059390931b85018201928281019150868411156125d257600080fd5b8286015b848110156124d35780356001600160401b038111156125f55760008081fd5b6126038986838b010161231b565b8452509183019183016125d6565b600082601f83011261262257600080fd5b8135602061262f8261244a565b60405161263c82826122ef565b83815260059390931b850182019282810191508684111561265c57600080fd5b8286015b848110156124d357612671816121e4565b8352918301918301612660565b600080600080600080600060e0888a03121561269957600080fd5b6126a2886121e4565b965060208801356001600160401b03808211156126be57600080fd5b6126ca8b838c0161246d565b975060408a01359150808211156126e057600080fd5b6126ec8b838c0161246d565b965060608a013591508082111561270257600080fd5b61270e8b838c01612587565b955060808a013591508082111561272457600080fd5b6127308b838c01612587565b945060a08a013591508082111561274657600080fd5b6127528b838c01612587565b935060c08a013591508082111561276857600080fd5b506127758a828b01612611565b91505092959891949750929550565b600081518084526020808501945080840160005b838110156127b457815187529582019590820190600101612798565b509495945050505050565b602081526000611aae6020830184612784565b600080604083850312156127e557600080fd5b82356001600160401b03808211156127fc57600080fd5b61280886838701612611565b9350602085013591508082111561281e57600080fd5b5061282b8582860161246d565b9150509250929050565b85815260a06020820152600061284e60a083018761229a565b8281036040840152612860818761229a565b90508281036060840152612874818661229a565b91505060018060a01b03831660808301529695505050505050565b600080604083850312156128a257600080fd5b6128ab836121e4565b9150602083013580151581146128c057600080fd5b809150509250929050565b600080604083850312156128de57600080fd5b82356001600160401b038111156128f457600080fd5b6129008582860161231b565b95602094909401359450505050565b6000806040838503121561292257600080fd5b61292b836121e4565b9150612939602084016121e4565b90509250929050565b600080600080600060a0868803121561295a57600080fd5b612963866121e4565b9450612971602087016121e4565b9350604086013592506060860135915060808601356001600160401b0381111561299a57600080fd5b61257a8882890161231b565b6000602082840312156129b857600080fd5b611aae826121e4565b600181811c908216806129d557607f821691505b6020821081036129f557634e487b7160e01b600052602260045260246000fd5b50919050565b6000808554612a09816129c1565b60018281168015612a215760018114612a3657612a65565b60ff1984168752821515830287019450612a65565b8960005260208060002060005b85811015612a5c5781548a820152908401908201612a43565b50505082870194505b5087519250612a78838560208b01612276565b602f60f81b93909201928352855191612a978382860160208a01612276565b91909201019695505050505050565b6020808252602e908201527f455243313135353a2063616c6c6572206973206e6f7420746f6b656e206f776e60408201526d195c881bdc88185c1c1c9bdd995960921b606082015260800190565b634e487b7160e01b600052603260045260246000fd5b634e487b7160e01b600052601160045260246000fd5b600060018201612b3257612b32612b0a565b5060010190565b60008451612b4b818460208901612276565b845190830190612b5f818360208901612276565b8451910190612b72818360208801612276565b0195945050505050565b60008251612b8e818460208701612276565b9190910192915050565b601f821115612bde57600081815260208120601f850160051c81016020861015612bbf5750805b601f850160051c820191505b8181101561133957828155600101612bcb565b505050565b81516001600160401b03811115612bfc57612bfc6122d9565b612c1081612c0a84546129c1565b84612b98565b602080601f831160018114612c455760008415612c2d5750858301515b600019600386901b1c1916600185901b178555611339565b600085815260208120601f198616915b82811015612c7457888601518255948401946001909101908401612c55565b5085821015612c925787850151600019600388901b60f8161c191681555b5050505050600190811b01905550565b828152604060208201526000612cbb604083018461229a565b949350505050565b634e487b7160e01b600052601260045260246000fd5b60208082526021908201527f455243313135353a206d696e7420746f20746865207a65726f206164647265736040820152607360f81b606082015260800190565b60208082526034908201527f53657373696f6e20494420616c72656164792065786973742c20706c6561736560408201527320757365206120646966666572656e74206f6e6560601b606082015260800190565b8082018082111561039557610395612b0a565b60208082526025908201527f455243313135353a207472616e7366657220746f20746865207a65726f206164604082015264647265737360d81b606082015260800190565b6020808252602a908201527f455243313135353a20696e73756666696369656e742062616c616e636520666f60408201526939103a3930b739b332b960b11b606082015260800190565b604081526000612e236040830185612784565b8281036020840152612e358185612784565b95945050505050565b808202811582820484141761039557610395612b0a565b600081612e6457612e64612b0a565b506000190190565b6001600160a01b03868116825285166020820152604081018490526060810183905260a0608082018190526000906111329083018461229a565b600060208284031215612eb857600080fd5b8151611aae8161222a565b600060033d1115612edc5760046000803e5060005160e01c5b90565b600060443d1015612eed5790565b6040516003193d81016004833e81513d6001600160401b038160248401118184111715612f1c57505050505090565b8285019150815181811115612f345750505050505090565b843d8701016020828501011115612f4e5750505050505090565b612f5d602082860101876122ef565b509095945050505050565b60208082526028908201527f455243313135353a204552433131353552656365697665722072656a656374656040820152676420746f6b656e7360c01b606082015260800190565b6001600160a01b0386811682528516602082015260a060408201819052600090612fdc90830186612784565b8281036060840152612fee8186612784565b90508281036080840152613002818561229a565b9897505050505050505056fea26469706673582212200f07f2b718132691a4f44bcb2140548ff34326fb83c492a8057f5d76eb79f53964736f6c63430008110033",
    "linkReferences": {}
  },
  "methodIdentifiers": {
    "_property(uint256)": "6a982298",
    "balanceOf(address,uint256)": "00fdd58e",
    "balanceOfBatch(address[],uint256[])": "4e1273f4",
    "generateId(address,uint256)": "82f5f85e",
    "isApprovedForAll(address,address)": "e985e9c5",
    "mint(address,uint256,uint256,string,string,string,address)": "1a61224c",
    "mintBatch(address,uint256[],uint256[],string[],string[],string[],address[])": "353f54cc",
    "owner()": "8da5cb5b",
    "pause()": "8456cb59",
    "paused()": "5c975abb",
    "renounceOwnership()": "715018a6",
    "safeBatchTransferFrom(address,address,uint256[],uint256[],bytes)": "2eb2c2d6",
    "safeTransferFrom(address,address,uint256,uint256,bytes)": "f242432a",
    "setApprovalForAll(address,bool)": "a22cb465",
    "supportsInterface(bytes4)": "01ffc9a7",
    "transferOwnership(address)": "f2fde38b",
    "unpause()": "3f4ba83a",
    "updateConfiguration(string,uint256)": "dc5180e6",
    "updateOperatingAgreement(string,uint256)": "b36c9db5",
    "updateValidator(address,uint256)": "e6635f5d",
    "uri(uint256)": "0e89341c"
  },
  "id": 17
}