{
  "abi": [
    {
      "anonymous": false,
      "inputs": [
        {
          "indexed": true,
          "internalType": "address",
          "name": "account",
          "type": "address"
        },
        {
          "indexed": true,
          "internalType": "address",
          "name": "operator",
          "type": "address"
        },
        {
          "indexed": false,
          "internalType": "bool",
          "name": "approved",
          "type": "bool"
        }
      ],
      "name": "ApprovalForAll",
      "type": "event"
    },
    {
      "anonymous": false,
      "inputs": [
        {
          "indexed": true,
          "internalType": "address",
          "name": "previousOwner",
          "type": "address"
        },
        {
          "indexed": true,
          "internalType": "address",
          "name": "newOwner",
          "type": "address"
        }
      ],
      "name": "OwnershipTransferred",
      "type": "event"
    },
    {
      "anonymous": false,
      "inputs": [
        {
          "indexed": false,
          "internalType": "address",
          "name": "account",
          "type": "address"
        }
      ],
      "name": "Paused",
      "type": "event"
    },
    {
      "anonymous": false,
      "inputs": [
        {
          "indexed": true,
          "internalType": "address",
          "name": "operator",
          "type": "address"
        },
        {
          "indexed": true,
          "internalType": "address",
          "name": "from",
          "type": "address"
        },
        {
          "indexed": true,
          "internalType": "address",
          "name": "to",
          "type": "address"
        },
        {
          "indexed": false,
          "internalType": "uint256[]",
          "name": "ids",
          "type": "uint256[]"
        },
        {
          "indexed": false,
          "internalType": "uint256[]",
          "name": "values",
          "type": "uint256[]"
        }
      ],
      "name": "TransferBatch",
      "type": "event"
    },
    {
      "anonymous": false,
      "inputs": [
        {
          "indexed": true,
          "internalType": "address",
          "name": "operator",
          "type": "address"
        },
        {
          "indexed": true,
          "internalType": "address",
          "name": "from",
          "type": "address"
        },
        {
          "indexed": true,
          "internalType": "address",
          "name": "to",
          "type": "address"
        },
        {
          "indexed": false,
          "internalType": "uint256",
          "name": "id",
          "type": "uint256"
        },
        {
          "indexed": false,
          "internalType": "uint256",
          "name": "value",
          "type": "uint256"
        }
      ],
      "name": "TransferSingle",
      "type": "event"
    },
    {
      "anonymous": false,
      "inputs": [
        {
          "indexed": false,
          "internalType": "string",
          "name": "value",
          "type": "string"
        },
        {
          "indexed": true,
          "internalType": "uint256",
          "name": "id",
          "type": "uint256"
        }
      ],
      "name": "URI",
      "type": "event"
    },
    {
      "anonymous": false,
      "inputs": [
        {
          "indexed": false,
          "internalType": "address",
          "name": "account",
          "type": "address"
        }
      ],
      "name": "Unpaused",
      "type": "event"
    },
    {
      "anonymous": false,
      "inputs": [
        {
          "indexed": false,
          "internalType": "uint256",
          "name": "",
          "type": "uint256"
        },
        {
          "indexed": false,
          "internalType": "string",
          "name": "newData",
          "type": "string"
        }
      ],
      "name": "UpdateConfiguration",
      "type": "event"
    },
    {
      "anonymous": false,
      "inputs": [
        {
          "indexed": false,
          "internalType": "uint256",
          "name": "",
          "type": "uint256"
        },
        {
          "indexed": false,
          "internalType": "string",
          "name": "newData",
          "type": "string"
        }
      ],
      "name": "UpdateOperatingAgreement",
      "type": "event"
    },
    {
      "anonymous": false,
      "inputs": [
        {
          "indexed": false,
          "internalType": "uint256",
          "name": "tokenId",
          "type": "uint256"
        },
        {
          "indexed": false,
          "internalType": "string",
          "name": "dataType",
          "type": "string"
        },
        {
          "indexed": false,
          "internalType": "address",
          "name": "validator",
          "type": "address"
        }
      ],
      "name": "UpdateValidator",
      "type": "event"
    },
    {
      "inputs": [
        {
          "internalType": "uint256",
          "name": "",
          "type": "uint256"
        }
      ],
      "name": "_property",
      "outputs": [
        {
          "internalType": "uint256",
          "name": "supply",
          "type": "uint256"
        },
        {
          "internalType": "string",
          "name": "operatingAgreement",
          "type": "string"
        },
        {
          "internalType": "string",
          "name": "definition",
          "type": "string"
        },
        {
          "internalType": "string",
          "name": "configuration",
          "type": "string"
        },
        {
          "internalType": "address",
          "name": "validator",
          "type": "address"
        }
      ],
      "stateMutability": "view",
      "type": "function"
    },
    {
      "inputs": [],
      "name": "_validator",
      "outputs": [
        {
          "internalType": "address",
          "name": "",
          "type": "address"
        }
      ],
      "stateMutability": "view",
      "type": "function"
    },
    {
      "inputs": [
        {
          "internalType": "address",
          "name": "account",
          "type": "address"
        },
        {
          "internalType": "uint256",
          "name": "id",
          "type": "uint256"
        }
      ],
      "name": "balanceOf",
      "outputs": [
        {
          "internalType": "uint256",
          "name": "",
          "type": "uint256"
        }
      ],
      "stateMutability": "view",
      "type": "function"
    },
    {
      "inputs": [
        {
          "internalType": "address[]",
          "name": "accounts",
          "type": "address[]"
        },
        {
          "internalType": "uint256[]",
          "name": "ids",
          "type": "uint256[]"
        }
      ],
      "name": "balanceOfBatch",
      "outputs": [
        {
          "internalType": "uint256[]",
          "name": "",
          "type": "uint256[]"
        }
      ],
      "stateMutability": "view",
      "type": "function"
    },
    {
      "inputs": [
        {
          "internalType": "address",
          "name": "operator",
          "type": "address"
        },
        {
          "internalType": "uint256",
          "name": "sessionId",
          "type": "uint256"
        }
      ],
      "name": "generateId",
      "outputs": [
        {
          "internalType": "uint256",
          "name": "",
          "type": "uint256"
        }
      ],
      "stateMutability": "view",
      "type": "function"
    },
    {
      "inputs": [
        {
          "internalType": "address",
          "name": "account",
          "type": "address"
        },
        {
          "internalType": "address",
          "name": "operator",
          "type": "address"
        }
      ],
      "name": "isApprovedForAll",
      "outputs": [
        {
          "internalType": "bool",
          "name": "",
          "type": "bool"
        }
      ],
      "stateMutability": "view",
      "type": "function"
    },
    {
      "inputs": [
        {
          "internalType": "address",
          "name": "to",
          "type": "address"
        },
        {
          "internalType": "uint256",
          "name": "sessionId",
          "type": "uint256"
        },
        {
          "internalType": "uint256",
          "name": "supply",
          "type": "uint256"
        },
        {
          "internalType": "string",
          "name": "definition",
          "type": "string"
        },
        {
          "internalType": "string",
          "name": "operatingAgreement",
          "type": "string"
        },
        {
          "internalType": "string",
          "name": "configuration",
          "type": "string"
        },
        {
          "internalType": "address",
          "name": "validator",
          "type": "address"
        }
      ],
      "name": "mint",
      "outputs": [
        {
          "internalType": "uint256",
          "name": "",
          "type": "uint256"
        }
      ],
      "stateMutability": "nonpayable",
      "type": "function"
    },
    {
      "inputs": [
        {
          "internalType": "address",
          "name": "to",
          "type": "address"
        },
        {
          "internalType": "uint256[]",
          "name": "sessionIds",
          "type": "uint256[]"
        },
        {
          "internalType": "uint256[]",
          "name": "supplies",
          "type": "uint256[]"
        },
        {
          "internalType": "string[]",
          "name": "definitions",
          "type": "string[]"
        },
        {
          "internalType": "string[]",
          "name": "operatingAgreements",
          "type": "string[]"
        },
        {
          "internalType": "string[]",
          "name": "configurations",
          "type": "string[]"
        },
        {
          "internalType": "address[]",
          "name": "validators",
          "type": "address[]"
        }
      ],
      "name": "mintBatch",
      "outputs": [
        {
          "internalType": "uint256[]",
          "name": "ids",
          "type": "uint256[]"
        }
      ],
      "stateMutability": "nonpayable",
      "type": "function"
    },
    {
      "inputs": [],
      "name": "owner",
      "outputs": [
        {
          "internalType": "address",
          "name": "",
          "type": "address"
        }
      ],
      "stateMutability": "view",
      "type": "function"
    },
    {
      "inputs": [],
      "name": "pause",
      "outputs": [],
      "stateMutability": "nonpayable",
      "type": "function"
    },
    {
      "inputs": [],
      "name": "paused",
      "outputs": [
        {
          "internalType": "bool",
          "name": "",
          "type": "bool"
        }
      ],
      "stateMutability": "view",
      "type": "function"
    },
    {
      "inputs": [],
      "name": "renounceOwnership",
      "outputs": [],
      "stateMutability": "nonpayable",
      "type": "function"
    },
    {
      "inputs": [
        {
          "internalType": "address",
          "name": "from",
          "type": "address"
        },
        {
          "internalType": "address",
          "name": "to",
          "type": "address"
        },
        {
          "internalType": "uint256[]",
          "name": "ids",
          "type": "uint256[]"
        },
        {
          "internalType": "uint256[]",
          "name": "amounts",
          "type": "uint256[]"
        },
        {
          "internalType": "bytes",
          "name": "data",
          "type": "bytes"
        }
      ],
      "name": "safeBatchTransferFrom",
      "outputs": [],
      "stateMutability": "nonpayable",
      "type": "function"
    },
    {
      "inputs": [
        {
          "internalType": "address",
          "name": "from",
          "type": "address"
        },
        {
          "internalType": "address",
          "name": "to",
          "type": "address"
        },
        {
          "internalType": "uint256",
          "name": "id",
          "type": "uint256"
        },
        {
          "internalType": "uint256",
          "name": "amount",
          "type": "uint256"
        },
        {
          "internalType": "bytes",
          "name": "data",
          "type": "bytes"
        }
      ],
      "name": "safeTransferFrom",
      "outputs": [],
      "stateMutability": "nonpayable",
      "type": "function"
    },
    {
      "inputs": [
        {
          "internalType": "address",
          "name": "operator",
          "type": "address"
        },
        {
          "internalType": "bool",
          "name": "approved",
          "type": "bool"
        }
      ],
      "name": "setApprovalForAll",
      "outputs": [],
      "stateMutability": "nonpayable",
      "type": "function"
    },
    {
      "inputs": [
        {
          "internalType": "bytes4",
          "name": "interfaceId",
          "type": "bytes4"
        }
      ],
      "name": "supportsInterface",
      "outputs": [
        {
          "internalType": "bool",
          "name": "",
          "type": "bool"
        }
      ],
      "stateMutability": "view",
      "type": "function"
    },
    {
      "inputs": [
        {
          "internalType": "address",
          "name": "newOwner",
          "type": "address"
        }
      ],
      "name": "transferOwnership",
      "outputs": [],
      "stateMutability": "nonpayable",
      "type": "function"
    },
    {
      "inputs": [],
      "name": "unpause",
      "outputs": [],
      "stateMutability": "nonpayable",
      "type": "function"
    },
    {
      "inputs": [
        {
          "internalType": "string",
          "name": "configuration",
          "type": "string"
        },
        {
          "internalType": "uint256",
          "name": "id",
          "type": "uint256"
        }
      ],
      "name": "updateConfiguration",
      "outputs": [
        {
          "internalType": "bool",
          "name": "",
          "type": "bool"
        }
      ],
      "stateMutability": "nonpayable",
      "type": "function"
    },
    {
      "inputs": [
        {
          "internalType": "string",
          "name": "operatingAgreement",
          "type": "string"
        },
        {
          "internalType": "uint256",
          "name": "id",
          "type": "uint256"
        }
      ],
      "name": "updateOperatingAgreement",
      "outputs": [
        {
          "internalType": "bool",
          "name": "",
          "type": "bool"
        }
      ],
      "stateMutability": "nonpayable",
      "type": "function"
    },
    {
      "inputs": [
        {
          "internalType": "address",
          "name": "validator",
          "type": "address"
        },
        {
          "internalType": "uint256",
          "name": "id",
          "type": "uint256"
        }
      ],
      "name": "updateValidator",
      "outputs": [
        {
          "internalType": "bool",
          "name": "",
          "type": "bool"
        }
      ],
      "stateMutability": "nonpayable",
      "type": "function"
    },
    {
      "inputs": [
        {
          "internalType": "uint256",
          "name": "id",
          "type": "uint256"
        }
      ],
      "name": "uri",
      "outputs": [
        {
          "internalType": "string",
          "name": "",
          "type": "string"
        }
      ],
      "stateMutability": "view",
      "type": "function"
    }
  ],
  "bytecode": {
    "object": "0x60a06040526001608081815262000018919081620000bb565b50600580546001600160a01b0319167312345678901234567890123456789012345678901790553480156200004c57600080fd5b5062000058336200006b565b6000805460ff60a01b1916905562000127565b600080546001600160a01b038381166001600160a01b0319831681178455604051919092169283917f8be0079c531659141344cd1fd0a4f28419497f9722a3daafe3b4186f6b6457e09190a35050565b828054828255906000526020600020908101928215620000fe579160200282015b82811115620000fe578251829060ff16905591602001919060010190620000dc565b506200010c92915062000110565b5090565b5b808211156200010c576000815560010162000111565b61359180620001376000396000f3fe608060405234801561001057600080fd5b50600436106101415760003560e01c806382f5f85e116100b8578063dc5180e61161007c578063dc5180e6146102b6578063e6635f5d146102c9578063e785fe52146102dc578063e985e9c5146102ef578063f242432a14610302578063f2fde38b1461031557600080fd5b806382f5f85e146102505780638456cb59146102635780638da5cb5b1461026b578063a22cb46514610290578063b36c9db5146102a357600080fd5b8063353f54cc1161010a578063353f54cc146101d75780633f4ba83a146101f75780634e1273f4146101ff5780635c975abb146102125780636a98229814610224578063715018a61461024857600080fd5b8062fdd58e1461014657806301ffc9a71461016c5780630e89341c1461018f5780631a61224c146101af5780632eb2c2d6146101c2575b600080fd5b6101596101543660046126e2565b610328565b6040519081526020015b60405180910390f35b61017f61017a366004612722565b6103c3565b6040519015158152602001610163565b6101a261019d36600461273f565b610413565b60405161016391906127a8565b6101596101bd366004612880565b61049e565b6101d56101d03660046129d0565b610503565b005b6101ea6101e5366004612b70565b610557565b6040516101639190612cb1565b6101d5610727565b6101ea61020d366004612cc4565b610741565b600054600160a01b900460ff1661017f565b61023761023236600461273f565b61086a565b604051610163959493929190612d27565b6101d5610a3a565b61015961025e3660046126e2565b610a4c565b6101d5610ae4565b6000546001600160a01b03165b6040516001600160a01b039091168152602001610163565b6101d561029e366004612d8f565b610afc565b61017f6102b1366004612dc6565b610b13565b61017f6102c4366004612dc6565b610bcc565b61017f6102d73660046126e2565b610c73565b600554610278906001600160a01b031681565b61017f6102fd366004612e0a565b610d5b565b6101d5610310366004612e3d565b610d94565b6101d5610323366004612ea1565b610de1565b60006001600160a01b0383166103985760405162461bcd60e51b815260206004820152602a60248201527f455243313135353a2061646472657373207a65726f206973206e6f742061207660448201526930b634b21037bbb732b960b11b60648201526084015b60405180910390fd5b5060008181526002602090815260408083206001600160a01b03861684529091529020545b92915050565b60006001600160e01b03198216636cdb3d1360e11b14806103f457506001600160e01b031982166303a24d0760e21b145b806103bd57506301ffc9a760e01b6001600160e01b03198316146103bd565b60008181526004602081905260409182902081015491516303a24d0760e21b81529081018390526060916001600160a01b0316908190630e89341c90602401600060405180830381865afa15801561046f573d6000803e3d6000fd5b505050506040513d6000823e601f3d908101601f191682016040526104979190810190612ebc565b9392505050565b60006104a8610e5a565b6104b061268e565b86815260208082018690526040808301889052606083018690526001600160a01b0385166080840152805191820190526000808252906104f5908b908b908590610ea7565b9a9950505050505050505050565b61050b610e5a565b6001600160a01b03851633148061052757506105278533610d5b565b6105435760405162461bcd60e51b815260040161038f90612f3d565b6105508585858585611229565b5050505050565b6060610561610e5a565b86516000816001600160401b0381111561057d5761057d6127bb565b6040519080825280602002602001820160405280156105b657816020015b6105a361268e565b81526020019060019003908161059b5790505b50905060005b8281101561070b578881815181106105d6576105d6612f8b565b60200260200101518282815181106105f0576105f0612f8b565b6020026020010151600001818152505086818151811061061257610612612f8b565b602002602001015182828151811061062c5761062c612f8b565b60200260200101516020018190525087818151811061064d5761064d612f8b565b602002602001015182828151811061066757610667612f8b565b60200260200101516040018190525085818151811061068857610688612f8b565b60200260200101518282815181106106a2576106a2612f8b565b6020026020010151606001819052508481815181106106c3576106c3612f8b565b60200260200101518282815181106106dd576106dd612f8b565b60209081029190910101516001600160a01b039091166080909101528061070381612fb7565b9150506105bc565b506104f58a8a8360405180602001604052806000815250611578565b61072f611ae3565b610737611b3d565b61073f611b8d565b565b606081518351146107a65760405162461bcd60e51b815260206004820152602960248201527f455243313135353a206163636f756e747320616e6420696473206c656e677468604482015268040dad2e6dac2e8c6d60bb1b606482015260840161038f565b600083516001600160401b038111156107c1576107c16127bb565b6040519080825280602002602001820160405280156107ea578160200160208202803683370190505b50905060005b84518110156108625761083585828151811061080e5761080e612f8b565b602002602001015185838151811061082857610828612f8b565b6020026020010151610328565b82828151811061084757610847612f8b565b602090810291909101015261085b81612fb7565b90506107f0565b509392505050565b6004602052600090815260409020805460018201805491929161088c90612fd0565b80601f01602080910402602001604051908101604052809291908181526020018280546108b890612fd0565b80156109055780601f106108da57610100808354040283529160200191610905565b820191906000526020600020905b8154815290600101906020018083116108e857829003601f168201915b50505050509080600201805461091a90612fd0565b80601f016020809104026020016040519081016040528092919081815260200182805461094690612fd0565b80156109935780601f1061096857610100808354040283529160200191610993565b820191906000526020600020905b81548152906001019060200180831161097657829003601f168201915b5050505050908060030180546109a890612fd0565b80601f01602080910402602001604051908101604052809291908181526020018280546109d490612fd0565b8015610a215780601f106109f657610100808354040283529160200191610a21565b820191906000526020600020905b815481529060010190602001808311610a0457829003601f168201915b505050600490930154919250506001600160a01b031685565b610a42611ae3565b61073f6000611be2565b6000610a56610e5a565b6000610a6c846001600160a01b03166014611c32565b90506000610a7946611dcd565b82610a8386611dcd565b604051602001610a959392919061300a565b6040516020818303038152906040529050600081604051602001610ab9919061304d565b60408051808303601f1901815291905280516020909101206001600160401b03169695505050505050565b610aec611ae3565b610af4610e5a565b61073f611e5f565b610b04610e5a565b610b0f338383611ea2565b5050565b6000610b1d610e5a565b610b2a335b836046611f8a565b610b6e5760405162461bcd60e51b81526020600482015260156024820152744f6e6c79203e203730252063616e2075706461746560581b604482015260640161038f565b6000828152600460205260409020600101610b8984826130b4565b507f6b491e3cbe1a3d27a215d960a465834cf22a7e3e87ffe8be5724ab67f72583fb8284604051610bbb929190613173565b60405180910390a150600192915050565b6000610bd6610e5a565b610be233836032611f8a565b610c265760405162461bcd60e51b81526020600482015260156024820152744f6e6c79203e203530252063616e2075706461746560581b604482015260640161038f565b6000828152600460205260409020600301610c4184826130b4565b507fb56c2e2e610c525cd60429993be20aab298f5bc84e28ad1a0b8eb2c2ca8559208284604051610bbb929190613173565b6000610c7d610e5a565b610c8633610b22565b610cca5760405162461bcd60e51b81526020600482015260156024820152744f6e6c79203e203730252063616e2075706461746560581b604482015260640161038f565b6000828152600460208190526040918290200180546001600160a01b0386166001600160a01b0319909116179055517f56137a68f73d3785a7a236d27a378cb92851e1b1d68317de555fc4fde9c17add90610bbb9084908690918252606060208301819052600990830152683b30b634b230ba37b960b91b60808301526001600160a01b0316604082015260a00190565b6000610d65610e5a565b506001600160a01b03918216600090815260036020908152604080832093909416825291909152205460ff1690565b610d9c610e5a565b6001600160a01b038516331480610db85750610db88533610d5b565b610dd45760405162461bcd60e51b815260040161038f90612f3d565b6105508585858585611ffb565b610de9611ae3565b6001600160a01b038116610e4e5760405162461bcd60e51b815260206004820152602660248201527f4f776e61626c653a206e6577206f776e657220697320746865207a65726f206160448201526564647265737360d01b606482015260840161038f565b610e5781611be2565b50565b600054600160a01b900460ff161561073f5760405162461bcd60e51b815260206004820152601060248201526f14185d5cd8589b194e881c185d5cd95960821b604482015260640161038f565b60006001805480602002602001604051908101604052809291908181526020018280548015610ef557602002820191906000526020600020905b815481526020019060010190808311610ee1575b5050604051631202ec5560e21b8152730590923445e29ae0bd11e0809d2d5572edd64d1d93506000925083915063480bb15490610f389033908790600401613194565b602060405180830381865afa158015610f55573d6000803e3d6000fd5b505050506040513d601f19601f82011682018060405250810190610f7991906131b8565b90508015610f995760405162461bcd60e51b815260040161038f906131d5565b610fa1610e5a565b6001600160a01b038816610fc75760405162461bcd60e51b815260040161038f90613205565b6000866040015151116110155760405162461bcd60e51b81526020600482015260166024820152751119599a5b9a5d1a5bdb881a5cc81c995c5d5a5c995960521b604482015260640161038f565b600087116110655760405162461bcd60e51b815260206004820152601b60248201527f56616c69642073657373696f6e49642069732072657175697265640000000000604482015260640161038f565b85516110a95760405162461bcd60e51b81526020600482015260136024820152724d696e696d756d20737570706c79206973203160681b604482015260640161038f565b60808601516001600160a01b03166110cd576005546001600160a01b031660808701525b855160006110db338a610a4c565b6000818152600460205260409020549091501561110a5760405162461bcd60e51b815260040161038f90613246565b60008181526002602090815260408083206001600160a01b038e1684529091528120805484929061113c90849061329a565b909155505060008181526004602090815260409091208951815590890151899190600182019061116c90826130b4565b506040820151600282019061118190826130b4565b506060820151600382019061119690826130b4565b5060809190910151600490910180546001600160a01b0319166001600160a01b039283161790558a166000336001600160a01b03167fc3d58168c5ae7397731d063d5bbf3d657854427343f4c083240f7aacaa2d0f628486604051611205929190918252602082015260400190565b60405180910390a461121c3360008c84868c612284565b9998505050505050505050565b600180548060200260200160405190810160405280929190818152602001828054801561127557602002820191906000526020600020905b815481526020019060010190808311611261575b5050604051631202ec5560e21b8152730590923445e29ae0bd11e0809d2d5572edd64d1d93506000925083915063480bb154906112b89033908790600401613194565b602060405180830381865afa1580156112d5573d6000803e3d6000fd5b505050506040513d601f19601f820116820180604052508101906112f991906131b8565b905080156113195760405162461bcd60e51b815260040161038f906131d5565b611321610e5a565b84518651146113835760405162461bcd60e51b815260206004820152602860248201527f455243313135353a2069647320616e6420616d6f756e7473206c656e677468206044820152670dad2e6dac2e8c6d60c31b606482015260840161038f565b6001600160a01b0387166113a95760405162461bcd60e51b815260040161038f906132ad565b336113b8818a8a8a8a8a6123f1565b60005b87518110156114f95760008882815181106113d8576113d8612f8b565b6020026020010151905060008883815181106113f6576113f6612f8b565b6020026020010151905060006002600084815260200190815260200160002060008e6001600160a01b03166001600160a01b031681526020019081526020016000205490508181101561145b5760405162461bcd60e51b815260040161038f906132f2565b8181036002600085815260200190815260200160002060008f6001600160a01b03166001600160a01b0316815260200190815260200160002081905550816002600085815260200190815260200160002060008e6001600160a01b03166001600160a01b0316815260200190815260200160002060008282546114de919061329a565b92505081905550505050806114f290612fb7565b90506113bb565b50876001600160a01b0316896001600160a01b0316826001600160a01b03167f4a39dc06d4c0dbc64b70af90fd698a233a518aa5d07e595d983b8c0526c8f7fb8a8a60405161154992919061333c565b60405180910390a461155f818a8a8a8a8a6123f1565b61156d818a8a8a8a8a6123f9565b505050505050505050565b606060018054806020026020016040519081016040528092919081815260200182805480156115c657602002820191906000526020600020905b8154815260200190600101908083116115b2575b5050604051631202ec5560e21b8152730590923445e29ae0bd11e0809d2d5572edd64d1d93506000925083915063480bb154906116099033908790600401613194565b602060405180830381865afa158015611626573d6000803e3d6000fd5b505050506040513d601f19601f8201168201806040525081019061164a91906131b8565b9050801561166a5760405162461bcd60e51b815260040161038f906131d5565b611672610e5a565b6001600160a01b0388166116985760405162461bcd60e51b815260040161038f90613205565b85518751146116fb5760405162461bcd60e51b815260206004820152602960248201527f73657373696f6e49647320616e642070726f70657274696573206c656e677468604482015268040dad2e6dac2e8c6d60bb1b606482015260840161038f565b600087516001600160401b03811115611716576117166127bb565b60405190808252806020026020018201604052801561173f578160200160208202803683370190505b509050600088516001600160401b0381111561175d5761175d6127bb565b604051908082528060200260200182016040528015611786578160200160208202803683370190505b50905060005b8951811015611a775760008982815181106117a9576117a9612f8b565b60200260200101516040015151116117fc5760405162461bcd60e51b81526020600482015260166024820152751119599a5b9a5d1a5bdb881a5cc81c995c5d5a5c995960521b604482015260640161038f565b60008a828151811061181057611810612f8b565b6020026020010151116118655760405162461bcd60e51b815260206004820152601b60248201527f56616c69642073657373696f6e49642069732072657175697265640000000000604482015260640161038f565b600089828151811061187957611879612f8b565b602002602001015160000151116118c85760405162461bcd60e51b81526020600482015260136024820152724d696e696d756d20737570706c79206973203160681b604482015260640161038f565b60006118ed338c84815181106118e0576118e0612f8b565b6020026020010151610a4c565b6000818152600460205260409020549091501561191c5760405162461bcd60e51b815260040161038f90613246565b60008a838151811061193057611930612f8b565b60200260200101516000015190508185848151811061195157611951612f8b565b6020026020010181815250508084848151811061197057611970612f8b565b602002602001018181525050806002600084815260200190815260200160002060008f6001600160a01b03166001600160a01b0316815260200190815260200160002060008282546119c2919061329a565b925050819055508a83815181106119db576119db612f8b565b6020908102919091018101516000848152600483526040902081518155918101519091906001820190611a0e90826130b4565b5060408201516002820190611a2390826130b4565b5060608201516003820190611a3890826130b4565b5060809190910151600490910180546001600160a01b0319166001600160a01b0390921691909117905550819050611a6f81612fb7565b91505061178c565b506001600160a01b038a166000336001600160a01b03167f4a39dc06d4c0dbc64b70af90fd698a233a518aa5d07e595d983b8c0526c8f7fb8585604051611abf92919061333c565b60405180910390a4611ad63360008c85858c6123f9565b5098975050505050505050565b6000546001600160a01b0316331461073f5760405162461bcd60e51b815260206004820181905260248201527f4f776e61626c653a2063616c6c6572206973206e6f7420746865206f776e6572604482015260640161038f565b600054600160a01b900460ff1661073f5760405162461bcd60e51b815260206004820152601460248201527314185d5cd8589b194e881b9bdd081c185d5cd95960621b604482015260640161038f565b611b95611b3d565b6000805460ff60a01b191690557f5db9ee0a495bf2e6ff9c91a7834c1ba4fdd244a5e8aa4e537bd38aeae4b073aa335b6040516001600160a01b03909116815260200160405180910390a1565b600080546001600160a01b038381166001600160a01b0319831681178455604051919092169283917f8be0079c531659141344cd1fd0a4f28419497f9722a3daafe3b4186f6b6457e09190a35050565b60606000611c4183600261336a565b611c4c90600261329a565b6001600160401b03811115611c6357611c636127bb565b6040519080825280601f01601f191660200182016040528015611c8d576020820181803683370190505b509050600360fc1b81600081518110611ca857611ca8612f8b565b60200101906001600160f81b031916908160001a905350600f60fb1b81600181518110611cd757611cd7612f8b565b60200101906001600160f81b031916908160001a9053506000611cfb84600261336a565b611d0690600161329a565b90505b6001811115611d7e576f181899199a1a9b1b9c1cb0b131b232b360811b85600f1660108110611d3a57611d3a612f8b565b1a60f81b828281518110611d5057611d50612f8b565b60200101906001600160f81b031916908160001a90535060049490941c93611d7781613381565b9050611d09565b5083156104975760405162461bcd60e51b815260206004820181905260248201527f537472696e67733a20686578206c656e67746820696e73756666696369656e74604482015260640161038f565b60606000611dda836124bc565b60010190506000816001600160401b03811115611df957611df96127bb565b6040519080825280601f01601f191660200182016040528015611e23576020820181803683370190505b5090508181016020015b600019016f181899199a1a9b1b9c1cb0b131b232b360811b600a86061a8153600a8504945084611e2d57509392505050565b611e67610e5a565b6000805460ff60a01b1916600160a01b1790557f62e78cea01bee320cd4e420270b5ea74000d11b0c9f74754ebdbfc544b05a258611bc53390565b611eaa610e5a565b816001600160a01b0316836001600160a01b031603611f1d5760405162461bcd60e51b815260206004820152602960248201527f455243313135353a2073657474696e6720617070726f76616c20737461747573604482015268103337b91039b2b63360b91b606482015260840161038f565b6001600160a01b03838116600081815260036020908152604080832094871680845294825291829020805460ff191686151590811790915591519182527f17307eab39ab6107e8899845ad3d59bd9653f200f220920489ca2b5937696c31910160405180910390a3505050565b60008281526002602090815260408083206001600160a01b0387168452909152812054808203611fbe576000915050610497565b60008481526004602052604081205490819003611fe057600092505050610497565b6000611fee83606484612594565b9094109695505050505050565b600180548060200260200160405190810160405280929190818152602001828054801561204757602002820191906000526020600020905b815481526020019060010190808311612033575b5050604051631202ec5560e21b8152730590923445e29ae0bd11e0809d2d5572edd64d1d93506000925083915063480bb1549061208a9033908790600401613194565b602060405180830381865afa1580156120a7573d6000803e3d6000fd5b505050506040513d601f19601f820116820180604052508101906120cb91906131b8565b905080156120eb5760405162461bcd60e51b815260040161038f906131d5565b6120f3610e5a565b6001600160a01b0387166121195760405162461bcd60e51b815260040161038f906132ad565b33600061212588612643565b9050600061213288612643565b9050612142838c8c85858c6123f1565b60008981526002602090815260408083206001600160a01b038f168452909152902054888110156121855760405162461bcd60e51b815260040161038f906132f2565b888103600260008c815260200190815260200160002060008e6001600160a01b03166001600160a01b031681526020019081526020016000208190555088600260008c815260200190815260200160002060008d6001600160a01b03166001600160a01b031681526020019081526020016000206000828254612208919061329a565b9091555050604080518b8152602081018b90526001600160a01b03808e16928f821692918816917fc3d58168c5ae7397731d063d5bbf3d657854427343f4c083240f7aacaa2d0f62910160405180910390a4612268848d8d86868d6123f1565b612276848d8d8d8d8d612284565b505050505050505050505050565b61228c610e5a565b6001600160a01b0384163b156123e95760405163f23a6e6160e01b81526001600160a01b0385169063f23a6e61906122d090899089908890889088906004016133ae565b6020604051808303816000875af192505050801561230b575060408051601f3d908101601f19168201909252612308918101906133f3565b60015b6123b757612317613410565b806308c379a003612350575061232b61342c565b806123365750612352565b8060405162461bcd60e51b815260040161038f91906127a8565b505b60405162461bcd60e51b815260206004820152603460248201527f455243313135353a207472616e7366657220746f206e6f6e2d455243313135356044820152732932b1b2b4bb32b91034b6b83632b6b2b73a32b960611b606482015260840161038f565b6001600160e01b0319811663f23a6e6160e01b146123e75760405162461bcd60e51b815260040161038f906134b5565b505b505050505050565b6123e9610e5a565b612401610e5a565b6001600160a01b0384163b156123e95760405163bc197c8160e01b81526001600160a01b0385169063bc197c819061244590899089908890889088906004016134fd565b6020604051808303816000875af1925050508015612480575060408051601f3d908101601f1916820190925261247d918101906133f3565b60015b61248c57612317613410565b6001600160e01b0319811663bc197c8160e01b146123e75760405162461bcd60e51b815260040161038f906134b5565b60008072184f03e93ff9f4daa797ed6e38ed64bf6a1f0160401b83106124fb5772184f03e93ff9f4daa797ed6e38ed64bf6a1f0160401b830492506040015b6d04ee2d6d415b85acef81000000008310612527576d04ee2d6d415b85acef8100000000830492506020015b662386f26fc10000831061254557662386f26fc10000830492506010015b6305f5e100831061255d576305f5e100830492506008015b612710831061257157612710830492506004015b60648310612583576064830492506002015b600a83106103bd5760010192915050565b60008080600019858709858702925082811083820303915050806000036125ce578382816125c4576125c4613398565b0492505050610497565b8084116125da57600080fd5b60008486880960026001871981018816978890046003810283188082028403028082028403028082028403028082028403028082028403029081029092039091026000889003889004909101858311909403939093029303949094049190911702949350505050565b6040805160018082528183019092526060916000919060208083019080368337019050509050828160008151811061267d5761267d612f8b565b602090810291909101015292915050565b6040518060a001604052806000815260200160608152602001606081526020016060815260200160006001600160a01b031681525090565b80356001600160a01b03811681146126dd57600080fd5b919050565b600080604083850312156126f557600080fd5b6126fe836126c6565b946020939093013593505050565b6001600160e01b031981168114610e5757600080fd5b60006020828403121561273457600080fd5b81356104978161270c565b60006020828403121561275157600080fd5b5035919050565b60005b8381101561277357818101518382015260200161275b565b50506000910152565b60008151808452612794816020860160208601612758565b601f01601f19169290920160200192915050565b602081526000610497602083018461277c565b634e487b7160e01b600052604160045260246000fd5b601f8201601f191681016001600160401b03811182821017156127f6576127f66127bb565b6040525050565b60006001600160401b03821115612816576128166127bb565b50601f01601f191660200190565b600082601f83011261283557600080fd5b8135612840816127fd565b60405161284d82826127d1565b82815285602084870101111561286257600080fd5b82602086016020830137600092810160200192909252509392505050565b600080600080600080600060e0888a03121561289b57600080fd5b6128a4886126c6565b9650602088013595506040880135945060608801356001600160401b03808211156128ce57600080fd5b6128da8b838c01612824565b955060808a01359150808211156128f057600080fd5b6128fc8b838c01612824565b945060a08a013591508082111561291257600080fd5b5061291f8a828b01612824565b92505061292e60c089016126c6565b905092959891949750929550565b60006001600160401b03821115612955576129556127bb565b5060051b60200190565b600082601f83011261297057600080fd5b8135602061297d8261293c565b60405161298a82826127d1565b83815260059390931b85018201928281019150868411156129aa57600080fd5b8286015b848110156129c557803583529183019183016129ae565b509695505050505050565b600080600080600060a086880312156129e857600080fd5b6129f1866126c6565b94506129ff602087016126c6565b935060408601356001600160401b0380821115612a1b57600080fd5b612a2789838a0161295f565b94506060880135915080821115612a3d57600080fd5b612a4989838a0161295f565b93506080880135915080821115612a5f57600080fd5b50612a6c88828901612824565b9150509295509295909350565b600082601f830112612a8a57600080fd5b81356020612a978261293c565b604051612aa482826127d1565b83815260059390931b8501820192828101915086841115612ac457600080fd5b8286015b848110156129c55780356001600160401b03811115612ae75760008081fd5b612af58986838b0101612824565b845250918301918301612ac8565b600082601f830112612b1457600080fd5b81356020612b218261293c565b604051612b2e82826127d1565b83815260059390931b8501820192828101915086841115612b4e57600080fd5b8286015b848110156129c557612b63816126c6565b8352918301918301612b52565b600080600080600080600060e0888a031215612b8b57600080fd5b612b94886126c6565b965060208801356001600160401b0380821115612bb057600080fd5b612bbc8b838c0161295f565b975060408a0135915080821115612bd257600080fd5b612bde8b838c0161295f565b965060608a0135915080821115612bf457600080fd5b612c008b838c01612a79565b955060808a0135915080821115612c1657600080fd5b612c228b838c01612a79565b945060a08a0135915080821115612c3857600080fd5b612c448b838c01612a79565b935060c08a0135915080821115612c5a57600080fd5b50612c678a828b01612b03565b91505092959891949750929550565b600081518084526020808501945080840160005b83811015612ca657815187529582019590820190600101612c8a565b509495945050505050565b6020815260006104976020830184612c76565b60008060408385031215612cd757600080fd5b82356001600160401b0380821115612cee57600080fd5b612cfa86838701612b03565b93506020850135915080821115612d1057600080fd5b50612d1d8582860161295f565b9150509250929050565b85815260a060208201526000612d4060a083018761277c565b8281036040840152612d52818761277c565b90508281036060840152612d66818661277c565b91505060018060a01b03831660808301529695505050505050565b8015158114610e5757600080fd5b60008060408385031215612da257600080fd5b612dab836126c6565b91506020830135612dbb81612d81565b809150509250929050565b60008060408385031215612dd957600080fd5b82356001600160401b03811115612def57600080fd5b612dfb85828601612824565b95602094909401359450505050565b60008060408385031215612e1d57600080fd5b612e26836126c6565b9150612e34602084016126c6565b90509250929050565b600080600080600060a08688031215612e5557600080fd5b612e5e866126c6565b9450612e6c602087016126c6565b9350604086013592506060860135915060808601356001600160401b03811115612e9557600080fd5b612a6c88828901612824565b600060208284031215612eb357600080fd5b610497826126c6565b600060208284031215612ece57600080fd5b81516001600160401b03811115612ee457600080fd5b8201601f81018413612ef557600080fd5b8051612f00816127fd565b604051612f0d82826127d1565b828152866020848601011115612f2257600080fd5b612f33836020830160208701612758565b9695505050505050565b6020808252602e908201527f455243313135353a2063616c6c6572206973206e6f7420746f6b656e206f776e60408201526d195c881bdc88185c1c1c9bdd995960921b606082015260800190565b634e487b7160e01b600052603260045260246000fd5b634e487b7160e01b600052601160045260246000fd5b600060018201612fc957612fc9612fa1565b5060010190565b600181811c90821680612fe457607f821691505b60208210810361300457634e487b7160e01b600052602260045260246000fd5b50919050565b6000845161301c818460208901612758565b845190830190613030818360208901612758565b8451910190613043818360208801612758565b0195945050505050565b6000825161305f818460208701612758565b9190910192915050565b601f8211156130af57600081815260208120601f850160051c810160208610156130905750805b601f850160051c820191505b818110156123e95782815560010161309c565b505050565b81516001600160401b038111156130cd576130cd6127bb565b6130e1816130db8454612fd0565b84613069565b602080601f83116001811461311657600084156130fe5750858301515b600019600386901b1c1916600185901b1785556123e9565b600085815260208120601f198616915b8281101561314557888601518255948401946001909101908401613126565b50858210156131635787850151600019600388901b60f8161c191681555b5050505050600190811b01905550565b82815260406020820152600061318c604083018461277c565b949350505050565b6001600160a01b038316815260406020820181905260009061318c90830184612c76565b6000602082840312156131ca57600080fd5b815161049781612d81565b602080825260169082015275135bdb1958dd5b19481058d8d95cdcc811195b9a595960521b604082015260600190565b60208082526021908201527f455243313135353a206d696e7420746f20746865207a65726f206164647265736040820152607360f81b606082015260800190565b60208082526034908201527f53657373696f6e20494420616c72656164792065786973742c20706c6561736560408201527320757365206120646966666572656e74206f6e6560601b606082015260800190565b808201808211156103bd576103bd612fa1565b60208082526025908201527f455243313135353a207472616e7366657220746f20746865207a65726f206164604082015264647265737360d81b606082015260800190565b6020808252602a908201527f455243313135353a20696e73756666696369656e742062616c616e636520666f60408201526939103a3930b739b332b960b11b606082015260800190565b60408152600061334f6040830185612c76565b82810360208401526133618185612c76565b95945050505050565b80820281158282048414176103bd576103bd612fa1565b60008161339057613390612fa1565b506000190190565b634e487b7160e01b600052601260045260246000fd5b6001600160a01b03868116825285166020820152604081018490526060810183905260a0608082018190526000906133e89083018461277c565b979650505050505050565b60006020828403121561340557600080fd5b81516104978161270c565b600060033d11156134295760046000803e5060005160e01c5b90565b600060443d101561343a5790565b6040516003193d81016004833e81513d6001600160401b03816024840111818411171561346957505050505090565b82850191508151818111156134815750505050505090565b843d870101602082850101111561349b5750505050505090565b6134aa602082860101876127d1565b509095945050505050565b60208082526028908201527f455243313135353a204552433131353552656365697665722072656a656374656040820152676420746f6b656e7360c01b606082015260800190565b6001600160a01b0386811682528516602082015260a06040820181905260009061352990830186612c76565b828103606084015261353b8186612c76565b9050828103608084015261354f818561277c565b9897505050505050505056fea2646970667358221220a81fae54e4aceeaef4df76597372398c702cab460ff41e9f1fb37154a47c312d64736f6c63430008110033",
    "linkReferences": {}
  },
  "methodIdentifiers": {
    "_property(uint256)": "6a982298",
    "_validator()": "e785fe52",
    "balanceOf(address,uint256)": "00fdd58e",
    "balanceOfBatch(address[],uint256[])": "4e1273f4",
    "generateId(address,uint256)": "82f5f85e",
    "isApprovedForAll(address,address)": "e985e9c5",
    "mint(address,uint256,uint256,string,string,string,address)": "1a61224c",
    "mintBatch(address,uint256[],uint256[],string[],string[],string[],address[])": "353f54cc",
    "owner()": "8da5cb5b",
    "pause()": "8456cb59",
    "paused()": "5c975abb",
    "renounceOwnership()": "715018a6",
    "safeBatchTransferFrom(address,address,uint256[],uint256[],bytes)": "2eb2c2d6",
    "safeTransferFrom(address,address,uint256,uint256,bytes)": "f242432a",
    "setApprovalForAll(address,bool)": "a22cb465",
    "supportsInterface(bytes4)": "01ffc9a7",
    "transferOwnership(address)": "f2fde38b",
    "unpause()": "3f4ba83a",
    "updateConfiguration(string,uint256)": "dc5180e6",
    "updateOperatingAgreement(string,uint256)": "b36c9db5",
    "updateValidator(address,uint256)": "e6635f5d",
    "uri(uint256)": "0e89341c"
  },
  "id": 19
}